{
  "_format": "hh-sol-artifact-1",
  "contractName": "DonationNFT",
  "sourceName": "contracts/DonationNFT.sol",
  "abi": [
    {
      "inputs": [
        {
          "internalType": "address",
          "name": "_reliefContract",
          "type": "address"
        }
      ],
      "stateMutability": "nonpayable",
      "type": "constructor"
    },
    {
      "anonymous": false,
      "inputs": [
        {
          "indexed": true,
          "internalType": "address",
          "name": "owner",
          "type": "address"
        },
        {
          "indexed": true,
          "internalType": "address",
          "name": "approved",
          "type": "address"
        },
        {
          "indexed": true,
          "internalType": "uint256",
          "name": "tokenId",
          "type": "uint256"
        }
      ],
      "name": "Approval",
      "type": "event"
    },
    {
      "anonymous": false,
      "inputs": [
        {
          "indexed": true,
          "internalType": "address",
          "name": "owner",
          "type": "address"
        },
        {
          "indexed": true,
          "internalType": "address",
          "name": "operator",
          "type": "address"
        },
        {
          "indexed": false,
          "internalType": "bool",
          "name": "approved",
          "type": "bool"
        }
      ],
      "name": "ApprovalForAll",
      "type": "event"
    },
    {
      "anonymous": false,
      "inputs": [
        {
          "indexed": true,
          "internalType": "address",
          "name": "donor",
          "type": "address"
        },
        {
          "indexed": false,
          "internalType": "enum DonationNFT.BadgeLevel",
          "name": "newLevel",
          "type": "uint8"
        }
      ],
      "name": "BadgeUpgraded",
      "type": "event"
    },
    {
      "anonymous": false,
      "inputs": [
        {
          "indexed": false,
          "internalType": "uint256",
          "name": "_fromTokenId",
          "type": "uint256"
        },
        {
          "indexed": false,
          "internalType": "uint256",
          "name": "_toTokenId",
          "type": "uint256"
        }
      ],
      "name": "BatchMetadataUpdate",
      "type": "event"
    },
    {
      "anonymous": false,
      "inputs": [
        {
          "indexed": true,
          "internalType": "address",
          "name": "donor",
          "type": "address"
        },
        {
          "indexed": false,
          "internalType": "uint256",
          "name": "tokenId",
          "type": "uint256"
        },
        {
          "indexed": false,
          "internalType": "uint256",
          "name": "amount",
          "type": "uint256"
        }
      ],
      "name": "DonationNFTMinted",
      "type": "event"
    },
    {
      "anonymous": false,
      "inputs": [
        {
          "indexed": false,
          "internalType": "uint256",
          "name": "_tokenId",
          "type": "uint256"
        }
      ],
      "name": "MetadataUpdate",
      "type": "event"
    },
    {
      "anonymous": false,
      "inputs": [
        {
          "indexed": true,
          "internalType": "address",
          "name": "previousOwner",
          "type": "address"
        },
        {
          "indexed": true,
          "internalType": "address",
          "name": "newOwner",
          "type": "address"
        }
      ],
      "name": "OwnershipTransferred",
      "type": "event"
    },
    {
      "anonymous": false,
      "inputs": [
        {
          "indexed": true,
          "internalType": "address",
          "name": "from",
          "type": "address"
        },
        {
          "indexed": true,
          "internalType": "address",
          "name": "to",
          "type": "address"
        },
        {
          "indexed": true,
          "internalType": "uint256",
          "name": "tokenId",
          "type": "uint256"
        }
      ],
      "name": "Transfer",
      "type": "event"
    },
    {
      "inputs": [
        {
          "internalType": "address",
          "name": "to",
          "type": "address"
        },
        {
          "internalType": "uint256",
          "name": "tokenId",
          "type": "uint256"
        }
      ],
      "name": "approve",
      "outputs": [],
      "stateMutability": "nonpayable",
      "type": "function"
    },
    {
      "inputs": [
        {
          "internalType": "address",
          "name": "owner",
          "type": "address"
        }
      ],
      "name": "balanceOf",
      "outputs": [
        {
          "internalType": "uint256",
          "name": "",
          "type": "uint256"
        }
      ],
      "stateMutability": "view",
      "type": "function"
    },
    {
      "inputs": [
        {
          "internalType": "address",
          "name": "",
          "type": "address"
        }
      ],
      "name": "donorBadges",
      "outputs": [
        {
          "internalType": "enum DonationNFT.BadgeLevel",
          "name": "",
          "type": "uint8"
        }
      ],
      "stateMutability": "view",
      "type": "function"
    },
    {
      "inputs": [
        {
          "internalType": "address",
          "name": "",
          "type": "address"
        },
        {
          "internalType": "uint256",
          "name": "",
          "type": "uint256"
        }
      ],
      "name": "donorTokens",
      "outputs": [
        {
          "internalType": "uint256",
          "name": "",
          "type": "uint256"
        }
      ],
      "stateMutability": "view",
      "type": "function"
    },
    {
      "inputs": [
        {
          "internalType": "address",
          "name": "",
          "type": "address"
        }
      ],
      "name": "donorTotalContributions",
      "outputs": [
        {
          "internalType": "uint256",
          "name": "",
          "type": "uint256"
        }
      ],
      "stateMutability": "view",
      "type": "function"
    },
    {
      "inputs": [
        {
          "internalType": "uint256",
          "name": "tokenId",
          "type": "uint256"
        }
      ],
      "name": "getApproved",
      "outputs": [
        {
          "internalType": "address",
          "name": "",
          "type": "address"
        }
      ],
      "stateMutability": "view",
      "type": "function"
    },
    {
      "inputs": [
        {
          "internalType": "address",
          "name": "_donor",
          "type": "address"
        }
      ],
      "name": "getBadgeName",
      "outputs": [
        {
          "internalType": "string",
          "name": "",
          "type": "string"
        }
      ],
      "stateMutability": "view",
      "type": "function"
    },
    {
      "inputs": [
        {
          "internalType": "address",
          "name": "_donor",
          "type": "address"
        }
      ],
      "name": "getDonorNFTs",
      "outputs": [
        {
          "internalType": "uint256[]",
          "name": "",
          "type": "uint256[]"
        }
      ],
      "stateMutability": "view",
      "type": "function"
    },
    {
      "inputs": [
        {
          "internalType": "address",
          "name": "owner",
          "type": "address"
        },
        {
          "internalType": "address",
          "name": "operator",
          "type": "address"
        }
      ],
      "name": "isApprovedForAll",
      "outputs": [
        {
          "internalType": "bool",
          "name": "",
          "type": "bool"
        }
      ],
      "stateMutability": "view",
      "type": "function"
    },
    {
      "inputs": [
        {
          "internalType": "address",
          "name": "_donor",
          "type": "address"
        },
        {
          "internalType": "uint256",
          "name": "_donationId",
          "type": "uint256"
        },
        {
          "internalType": "uint256",
          "name": "_campaignId",
          "type": "uint256"
        },
        {
          "internalType": "uint256",
          "name": "_amount",
          "type": "uint256"
        },
        {
          "internalType": "string",
          "name": "_campaignName",
          "type": "string"
        },
        {
          "internalType": "string",
          "name": "_tokenURI",
          "type": "string"
        }
      ],
      "name": "mintDonationNFT",
      "outputs": [
        {
          "internalType": "uint256",
          "name": "",
          "type": "uint256"
        }
      ],
      "stateMutability": "nonpayable",
      "type": "function"
    },
    {
      "inputs": [],
      "name": "name",
      "outputs": [
        {
          "internalType": "string",
          "name": "",
          "type": "string"
        }
      ],
      "stateMutability": "view",
      "type": "function"
    },
    {
      "inputs": [],
      "name": "owner",
      "outputs": [
        {
          "internalType": "address",
          "name": "",
          "type": "address"
        }
      ],
      "stateMutability": "view",
      "type": "function"
    },
    {
      "inputs": [
        {
          "internalType": "uint256",
          "name": "tokenId",
          "type": "uint256"
        }
      ],
      "name": "ownerOf",
      "outputs": [
        {
          "internalType": "address",
          "name": "",
          "type": "address"
        }
      ],
      "stateMutability": "view",
      "type": "function"
    },
    {
      "inputs": [],
      "name": "reliefContract",
      "outputs": [
        {
          "internalType": "address",
          "name": "",
          "type": "address"
        }
      ],
      "stateMutability": "view",
      "type": "function"
    },
    {
      "inputs": [],
      "name": "renounceOwnership",
      "outputs": [],
      "stateMutability": "nonpayable",
      "type": "function"
    },
    {
      "inputs": [
        {
          "internalType": "address",
          "name": "from",
          "type": "address"
        },
        {
          "internalType": "address",
          "name": "to",
          "type": "address"
        },
        {
          "internalType": "uint256",
          "name": "tokenId",
          "type": "uint256"
        }
      ],
      "name": "safeTransferFrom",
      "outputs": [],
      "stateMutability": "nonpayable",
      "type": "function"
    },
    {
      "inputs": [
        {
          "internalType": "address",
          "name": "from",
          "type": "address"
        },
        {
          "internalType": "address",
          "name": "to",
          "type": "address"
        },
        {
          "internalType": "uint256",
          "name": "tokenId",
          "type": "uint256"
        },
        {
          "internalType": "bytes",
          "name": "data",
          "type": "bytes"
        }
      ],
      "name": "safeTransferFrom",
      "outputs": [],
      "stateMutability": "nonpayable",
      "type": "function"
    },
    {
      "inputs": [
        {
          "internalType": "address",
          "name": "operator",
          "type": "address"
        },
        {
          "internalType": "bool",
          "name": "approved",
          "type": "bool"
        }
      ],
      "name": "setApprovalForAll",
      "outputs": [],
      "stateMutability": "nonpayable",
      "type": "function"
    },
    {
      "inputs": [
        {
          "internalType": "bytes4",
          "name": "interfaceId",
          "type": "bytes4"
        }
      ],
      "name": "supportsInterface",
      "outputs": [
        {
          "internalType": "bool",
          "name": "",
          "type": "bool"
        }
      ],
      "stateMutability": "view",
      "type": "function"
    },
    {
      "inputs": [],
      "name": "symbol",
      "outputs": [
        {
          "internalType": "string",
          "name": "",
          "type": "string"
        }
      ],
      "stateMutability": "view",
      "type": "function"
    },
    {
      "inputs": [
        {
          "internalType": "uint256",
          "name": "",
          "type": "uint256"
        }
      ],
      "name": "tokenMetadata",
      "outputs": [
        {
          "internalType": "uint256",
          "name": "donationId",
          "type": "uint256"
        },
        {
          "internalType": "uint256",
          "name": "campaignId",
          "type": "uint256"
        },
        {
          "internalType": "uint256",
          "name": "amount",
          "type": "uint256"
        },
        {
          "internalType": "uint256",
          "name": "timestamp",
          "type": "uint256"
        },
        {
          "internalType": "string",
          "name": "campaignName",
          "type": "string"
        },
        {
          "internalType": "string",
          "name": "impactDescription",
          "type": "string"
        }
      ],
      "stateMutability": "view",
      "type": "function"
    },
    {
      "inputs": [
        {
          "internalType": "uint256",
          "name": "tokenId",
          "type": "uint256"
        }
      ],
      "name": "tokenURI",
      "outputs": [
        {
          "internalType": "string",
          "name": "",
          "type": "string"
        }
      ],
      "stateMutability": "view",
      "type": "function"
    },
    {
      "inputs": [
        {
          "internalType": "address",
          "name": "from",
          "type": "address"
        },
        {
          "internalType": "address",
          "name": "to",
          "type": "address"
        },
        {
          "internalType": "uint256",
          "name": "tokenId",
          "type": "uint256"
        }
      ],
      "name": "transferFrom",
      "outputs": [],
      "stateMutability": "nonpayable",
      "type": "function"
    },
    {
      "inputs": [
        {
          "internalType": "address",
          "name": "newOwner",
          "type": "address"
        }
      ],
      "name": "transferOwnership",
      "outputs": [],
      "stateMutability": "nonpayable",
      "type": "function"
    },
    {
      "inputs": [
        {
          "internalType": "uint256",
          "name": "_tokenId",
          "type": "uint256"
        },
        {
          "internalType": "string",
          "name": "_impact",
          "type": "string"
        }
      ],
      "name": "updateImpact",
      "outputs": [],
      "stateMutability": "nonpayable",
      "type": "function"
    }
  ],
  "bytecode": "0x608060405234801561001057600080fd5b5060405161444938038061444983398181016040528101906100329190610254565b6040518060400160405280601781526020017f52656c69656620446f6e6174696f6e20526563656970740000000000000000008152506040518060400160405280600381526020017f524452000000000000000000000000000000000000000000000000000000000081525081600090816100ad91906104d1565b5080600190816100bd91906104d1565b5050506100dc6100d161012360201b60201c565b61012b60201b60201c565b80600960006101000a81548173ffffffffffffffffffffffffffffffffffffffff021916908373ffffffffffffffffffffffffffffffffffffffff160217905550506105a3565b600033905090565b6000600760009054906101000a900473ffffffffffffffffffffffffffffffffffffffff16905081600760006101000a81548173ffffffffffffffffffffffffffffffffffffffff021916908373ffffffffffffffffffffffffffffffffffffffff1602179055508173ffffffffffffffffffffffffffffffffffffffff168173ffffffffffffffffffffffffffffffffffffffff167f8be0079c531659141344cd1fd0a4f28419497f9722a3daafe3b4186f6b6457e060405160405180910390a35050565b600080fd5b600073ffffffffffffffffffffffffffffffffffffffff82169050919050565b6000610221826101f6565b9050919050565b61023181610216565b811461023c57600080fd5b50565b60008151905061024e81610228565b92915050565b60006020828403121561026a576102696101f1565b5b60006102788482850161023f565b91505092915050565b600081519050919050565b7f4e487b7100000000000000000000000000000000000000000000000000000000600052604160045260246000fd5b7f4e487b7100000000000000000000000000000000000000000000000000000000600052602260045260246000fd5b6000600282049050600182168061030257607f821691505b602082108103610315576103146102bb565b5b50919050565b60008190508160005260206000209050919050565b60006020601f8301049050919050565b600082821b905092915050565b60006008830261037d7fffffffffffffffffffffffffffffffffffffffffffffffffffffffffffffffff82610340565b6103878683610340565b95508019841693508086168417925050509392505050565b6000819050919050565b6000819050919050565b60006103ce6103c96103c48461039f565b6103a9565b61039f565b9050919050565b6000819050919050565b6103e8836103b3565b6103fc6103f4826103d5565b84845461034d565b825550505050565b600090565b610411610404565b61041c8184846103df565b505050565b5b8181101561044057610435600082610409565b600181019050610422565b5050565b601f821115610485576104568161031b565b61045f84610330565b8101602085101561046e578190505b61048261047a85610330565b830182610421565b50505b505050565b600082821c905092915050565b60006104a86000198460080261048a565b1980831691505092915050565b60006104c18383610497565b9150826002028217905092915050565b6104da82610281565b67ffffffffffffffff8111156104f3576104f261028c565b5b6104fd82546102ea565b610508828285610444565b600060209050601f83116001811461053b5760008415610529578287015190505b61053385826104b5565b86555061059b565b601f1984166105498661031b565b60005b828110156105715784890151825560018201915060208501945060208101905061054c565b8683101561058e578489015161058a601f891682610497565b8355505b6001600288020188555050505b505050505050565b613e97806105b26000396000f3fe608060405234801561001057600080fd5b50600436106101735760003560e01c80637990f6ad116100de578063c04b90bf11610097578063e985e9c511610071578063e985e9c51461049b578063f2fde38b146104cb578063f3eb69ab146104e7578063fab8a47b1461051757610173565b8063c04b90bf1461041d578063c87b56dd1461043b578063dd84421e1461046b57610173565b80637990f6ad146103495780638da5cb5b1461037957806395d89b4114610397578063a22cb465146103b5578063a7f5b51b146103d1578063b88d4fde1461040157610173565b806323b872dd1161013057806323b872dd1461027257806342842e0e1461028e5780636352211e146102aa5780636914db60146102da57806370a082311461030f578063715018a61461033f57610173565b806301ffc9a71461017857806306fdde03146101a8578063081812fc146101c6578063095ea7b3146101f6578063130836fa146102125780631798fd6e14610242575b600080fd5b610192600480360381019061018d919061287e565b610533565b60405161019f91906128c6565b60405180910390f35b6101b0610545565b6040516101bd9190612971565b60405180910390f35b6101e060048036038101906101db91906129c9565b6105d7565b6040516101ed9190612a37565b60405180910390f35b610210600480360381019061020b9190612a7e565b61061d565b005b61022c60048036038101906102279190612abe565b610734565b6040516102399190612b62565b60405180910390f35b61025c60048036038101906102579190612cb2565b610754565b6040516102699190612d86565b60405180910390f35b61028c60048036038101906102879190612da1565b6109db565b005b6102a860048036038101906102a39190612da1565b610a3b565b005b6102c460048036038101906102bf91906129c9565b610a5b565b6040516102d19190612a37565b60405180910390f35b6102f460048036038101906102ef91906129c9565b610ae1565b60405161030696959493929190612df4565b60405180910390f35b61032960048036038101906103249190612abe565b610c2d565b6040516103369190612d86565b60405180910390f35b610347610ce4565b005b610363600480360381019061035e9190612abe565b610cf8565b6040516103709190612971565b60405180910390f35b610381610f31565b60405161038e9190612a37565b60405180910390f35b61039f610f5b565b6040516103ac9190612971565b60405180910390f35b6103cf60048036038101906103ca9190612e8f565b610fed565b005b6103eb60048036038101906103e69190612abe565b611003565b6040516103f89190612f8d565b60405180910390f35b61041b60048036038101906104169190613050565b61109a565b005b6104256110fc565b6040516104329190612a37565b60405180910390f35b610455600480360381019061045091906129c9565b611122565b6040516104629190612971565b60405180910390f35b61048560048036038101906104809190612abe565b611134565b6040516104929190612d86565b60405180910390f35b6104b560048036038101906104b091906130d3565b61114c565b6040516104c291906128c6565b60405180910390f35b6104e560048036038101906104e09190612abe565b6111e0565b005b61050160048036038101906104fc9190612a7e565b611263565b60405161050e9190612d86565b60405180910390f35b610531600480360381019061052c9190613113565b611294565b005b600061053e82611394565b9050919050565b6060600080546105549061319e565b80601f01602080910402602001604051908101604052809291908181526020018280546105809061319e565b80156105cd5780601f106105a2576101008083540402835291602001916105cd565b820191906000526020600020905b8154815290600101906020018083116105b057829003601f168201915b5050505050905090565b60006105e2826113f5565b6004600083815260200190815260200160002060009054906101000a900473ffffffffffffffffffffffffffffffffffffffff169050919050565b600061062882610a5b565b90508073ffffffffffffffffffffffffffffffffffffffff168373ffffffffffffffffffffffffffffffffffffffff1603610698576040517f08c379a000000000000000000000000000000000000000000000000000000000815260040161068f90613241565b60405180910390fd5b8073ffffffffffffffffffffffffffffffffffffffff166106b7611440565b73ffffffffffffffffffffffffffffffffffffffff1614806106e657506106e5816106e0611440565b61114c565b5b610725576040517f08c379a000000000000000000000000000000000000000000000000000000000815260040161071c906132d3565b60405180910390fd5b61072f8383611448565b505050565b600d6020528060005260406000206000915054906101000a900460ff1681565b6000600960009054906101000a900473ffffffffffffffffffffffffffffffffffffffff1673ffffffffffffffffffffffffffffffffffffffff163373ffffffffffffffffffffffffffffffffffffffff16146107e6576040517f08c379a00000000000000000000000000000000000000000000000000000000081526004016107dd9061333f565b60405180910390fd5b6107f06008611501565b60006107fc6008611517565b90506108088882611525565b6108128184611543565b6040518060c0016040528088815260200187815260200186815260200142815260200185815260200160405180602001604052806000815250815250600a600083815260200190815260200160002060008201518160000155602082015181600101556040820151816002015560608201518160030155608082015181600401908161089e919061350b565b5060a08201518160050190816108b4919061350b565b50905050600b60008973ffffffffffffffffffffffffffffffffffffffff1673ffffffffffffffffffffffffffffffffffffffff16815260200190815260200160002081908060018154018082558091505060019003906000526020600020016000909190919091505584600c60008a73ffffffffffffffffffffffffffffffffffffffff1673ffffffffffffffffffffffffffffffffffffffff168152602001908152602001600020600082825461096d919061360c565b9250508190555061097d886115e7565b8773ffffffffffffffffffffffffffffffffffffffff167fdf28c7fcbc00fb528aaee0618c81ab3c48bf0b5f7b6ef2f9cfff4bce6f878a4282876040516109c5929190613640565b60405180910390a2809150509695505050505050565b6109ec6109e6611440565b826117ce565b610a2b576040517f08c379a0000000000000000000000000000000000000000000000000000000008152600401610a22906136db565b60405180910390fd5b610a36838383611863565b505050565b610a568383836040518060200160405280600081525061109a565b505050565b600080610a6783611b5c565b9050600073ffffffffffffffffffffffffffffffffffffffff168173ffffffffffffffffffffffffffffffffffffffff1603610ad8576040517f08c379a0000000000000000000000000000000000000000000000000000000008152600401610acf90613747565b60405180910390fd5b80915050919050565b600a602052806000526040600020600091509050806000015490806001015490806002015490806003015490806004018054610b1c9061319e565b80601f0160208091040260200160405190810160405280929190818152602001828054610b489061319e565b8015610b955780601f10610b6a57610100808354040283529160200191610b95565b820191906000526020600020905b815481529060010190602001808311610b7857829003601f168201915b505050505090806005018054610baa9061319e565b80601f0160208091040260200160405190810160405280929190818152602001828054610bd69061319e565b8015610c235780601f10610bf857610100808354040283529160200191610c23565b820191906000526020600020905b815481529060010190602001808311610c0657829003601f168201915b5050505050905086565b60008073ffffffffffffffffffffffffffffffffffffffff168273ffffffffffffffffffffffffffffffffffffffff1603610c9d576040517f08c379a0000000000000000000000000000000000000000000000000000000008152600401610c94906137d9565b60405180910390fd5b600360008373ffffffffffffffffffffffffffffffffffffffff1673ffffffffffffffffffffffffffffffffffffffff168152602001908152602001600020549050919050565b610cec611b99565b610cf66000611c17565b565b60606000600d60008473ffffffffffffffffffffffffffffffffffffffff1673ffffffffffffffffffffffffffffffffffffffff16815260200190815260200160002060009054906101000a900460ff169050600480811115610d5e57610d5d612aeb565b5b816004811115610d7157610d70612aeb565b5b03610db4576040518060400160405280600d81526020017f4469616d6f6e6420446f6e6f7200000000000000000000000000000000000000815250915050610f2c565b60036004811115610dc857610dc7612aeb565b5b816004811115610ddb57610dda612aeb565b5b03610e1e576040518060400160405280600e81526020017f506c6174696e756d20446f6e6f72000000000000000000000000000000000000815250915050610f2c565b60026004811115610e3257610e31612aeb565b5b816004811115610e4557610e44612aeb565b5b03610e88576040518060400160405280600a81526020017f476f6c6420446f6e6f7200000000000000000000000000000000000000000000815250915050610f2c565b60016004811115610e9c57610e9b612aeb565b5b816004811115610eaf57610eae612aeb565b5b03610ef2576040518060400160405280600c81526020017f53696c76657220446f6e6f720000000000000000000000000000000000000000815250915050610f2c565b6040518060400160405280600c81526020017f42726f6e7a6520446f6e6f7200000000000000000000000000000000000000008152509150505b919050565b6000600760009054906101000a900473ffffffffffffffffffffffffffffffffffffffff16905090565b606060018054610f6a9061319e565b80601f0160208091040260200160405190810160405280929190818152602001828054610f969061319e565b8015610fe35780601f10610fb857610100808354040283529160200191610fe3565b820191906000526020600020905b815481529060010190602001808311610fc657829003601f168201915b5050505050905090565b610fff610ff8611440565b8383611cdd565b5050565b6060600b60008373ffffffffffffffffffffffffffffffffffffffff1673ffffffffffffffffffffffffffffffffffffffff16815260200190815260200160002080548060200260200160405190810160405280929190818152602001828054801561108e57602002820191906000526020600020905b81548152602001906001019080831161107a575b50505050509050919050565b6110ab6110a5611440565b836117ce565b6110ea576040517f08c379a00000000000000000000000000000000000000000000000000000000081526004016110e1906136db565b60405180910390fd5b6110f684848484611e49565b50505050565b600960009054906101000a900473ffffffffffffffffffffffffffffffffffffffff1681565b606061112d82611ea5565b9050919050565b600c6020528060005260406000206000915090505481565b6000600560008473ffffffffffffffffffffffffffffffffffffffff1673ffffffffffffffffffffffffffffffffffffffff16815260200190815260200160002060008373ffffffffffffffffffffffffffffffffffffffff1673ffffffffffffffffffffffffffffffffffffffff16815260200190815260200160002060009054906101000a900460ff16905092915050565b6111e8611b99565b600073ffffffffffffffffffffffffffffffffffffffff168173ffffffffffffffffffffffffffffffffffffffff1603611257576040517f08c379a000000000000000000000000000000000000000000000000000000000815260040161124e9061386b565b60405180910390fd5b61126081611c17565b50565b600b602052816000526040600020818154811061127f57600080fd5b90600052602060002001600091509150505481565b600960009054906101000a900473ffffffffffffffffffffffffffffffffffffffff1673ffffffffffffffffffffffffffffffffffffffff163373ffffffffffffffffffffffffffffffffffffffff1614611324576040517f08c379a000000000000000000000000000000000000000000000000000000000815260040161131b9061333f565b60405180910390fd5b61132d82611fb7565b61136c576040517f08c379a0000000000000000000000000000000000000000000000000000000008152600401611363906138d7565b60405180910390fd5b80600a6000848152602001908152602001600020600501908161138f919061350b565b505050565b6000634906490660e01b7bffffffffffffffffffffffffffffffffffffffffffffffffffffffff1916827bffffffffffffffffffffffffffffffffffffffffffffffffffffffff191614806113ee57506113ed82611ff8565b5b9050919050565b6113fe81611fb7565b61143d576040517f08c379a000000000000000000000000000000000000000000000000000000000815260040161143490613747565b60405180910390fd5b50565b600033905090565b816004600083815260200190815260200160002060006101000a81548173ffffffffffffffffffffffffffffffffffffffff021916908373ffffffffffffffffffffffffffffffffffffffff160217905550808273ffffffffffffffffffffffffffffffffffffffff166114bb83610a5b565b73ffffffffffffffffffffffffffffffffffffffff167f8c5be1e5ebec7d5bd14f71427d1e84f3dd0314c0f7b2291e5b200ac8c7c3b92560405160405180910390a45050565b6001816000016000828254019250508190555050565b600081600001549050919050565b61153f8282604051806020016040528060008152506120da565b5050565b61154c82611fb7565b61158b576040517f08c379a000000000000000000000000000000000000000000000000000000000815260040161158290613969565b60405180910390fd5b806006600084815260200190815260200160002090816115ab919061350b565b507ff8e1a15aba9398e019f0b49df1a4fde98ee17ae345cb5f6b5e2c27f5033e8ce7826040516115db9190612d86565b60405180910390a15050565b6000600c60008373ffffffffffffffffffffffffffffffffffffffff1673ffffffffffffffffffffffffffffffffffffffff1681526020019081526020016000205490506000600d60008473ffffffffffffffffffffffffffffffffffffffff1673ffffffffffffffffffffffffffffffffffffffff16815260200190815260200160002060009054906101000a900460ff1690506000678ac7230489e80000831061169657600490506116e6565b674563918244f4000083106116ae57600390506116e5565b671bc16d674ec8000083106116c657600290506116e4565b6706f05b59d3b2000083106116de57600190506116e3565b600090505b5b5b5b8160048111156116f9576116f8612aeb565b5b81600481111561170c5761170b612aeb565b5b11156117c85780600d60008673ffffffffffffffffffffffffffffffffffffffff1673ffffffffffffffffffffffffffffffffffffffff16815260200190815260200160002060006101000a81548160ff0219169083600481111561177457611773612aeb565b5b02179055508373ffffffffffffffffffffffffffffffffffffffff167f2bc74aaa59e4369e8de8007806b78534aaf19c56c5a2bb762cca8f7065520211826040516117bf9190612b62565b60405180910390a25b50505050565b6000806117da83610a5b565b90508073ffffffffffffffffffffffffffffffffffffffff168473ffffffffffffffffffffffffffffffffffffffff16148061181c575061181b818561114c565b5b8061185a57508373ffffffffffffffffffffffffffffffffffffffff16611842846105d7565b73ffffffffffffffffffffffffffffffffffffffff16145b91505092915050565b8273ffffffffffffffffffffffffffffffffffffffff1661188382610a5b565b73ffffffffffffffffffffffffffffffffffffffff16146118d9576040517f08c379a00000000000000000000000000000000000000000000000000000000081526004016118d0906139fb565b60405180910390fd5b600073ffffffffffffffffffffffffffffffffffffffff168273ffffffffffffffffffffffffffffffffffffffff1603611948576040517f08c379a000000000000000000000000000000000000000000000000000000000815260040161193f90613a8d565b60405180910390fd5b6119558383836001612135565b8273ffffffffffffffffffffffffffffffffffffffff1661197582610a5b565b73ffffffffffffffffffffffffffffffffffffffff16146119cb576040517f08c379a00000000000000000000000000000000000000000000000000000000081526004016119c2906139fb565b60405180910390fd5b6004600082815260200190815260200160002060006101000a81549073ffffffffffffffffffffffffffffffffffffffff02191690556001600360008573ffffffffffffffffffffffffffffffffffffffff1673ffffffffffffffffffffffffffffffffffffffff168152602001908152602001600020600082825403925050819055506001600360008473ffffffffffffffffffffffffffffffffffffffff1673ffffffffffffffffffffffffffffffffffffffff16815260200190815260200160002060008282540192505081905550816002600083815260200190815260200160002060006101000a81548173ffffffffffffffffffffffffffffffffffffffff021916908373ffffffffffffffffffffffffffffffffffffffff160217905550808273ffffffffffffffffffffffffffffffffffffffff168473ffffffffffffffffffffffffffffffffffffffff167fddf252ad1be2c89b69c2b068fc378daa952ba7f163c4a11628f55a4df523b3ef60405160405180910390a4611b57838383600161213b565b505050565b60006002600083815260200190815260200160002060009054906101000a900473ffffffffffffffffffffffffffffffffffffffff169050919050565b611ba1611440565b73ffffffffffffffffffffffffffffffffffffffff16611bbf610f31565b73ffffffffffffffffffffffffffffffffffffffff1614611c15576040517f08c379a0000000000000000000000000000000000000000000000000000000008152600401611c0c90613af9565b60405180910390fd5b565b6000600760009054906101000a900473ffffffffffffffffffffffffffffffffffffffff16905081600760006101000a81548173ffffffffffffffffffffffffffffffffffffffff021916908373ffffffffffffffffffffffffffffffffffffffff1602179055508173ffffffffffffffffffffffffffffffffffffffff168173ffffffffffffffffffffffffffffffffffffffff167f8be0079c531659141344cd1fd0a4f28419497f9722a3daafe3b4186f6b6457e060405160405180910390a35050565b8173ffffffffffffffffffffffffffffffffffffffff168373ffffffffffffffffffffffffffffffffffffffff1603611d4b576040517f08c379a0000000000000000000000000000000000000000000000000000000008152600401611d4290613b65565b60405180910390fd5b80600560008573ffffffffffffffffffffffffffffffffffffffff1673ffffffffffffffffffffffffffffffffffffffff16815260200190815260200160002060008473ffffffffffffffffffffffffffffffffffffffff1673ffffffffffffffffffffffffffffffffffffffff16815260200190815260200160002060006101000a81548160ff0219169083151502179055508173ffffffffffffffffffffffffffffffffffffffff168373ffffffffffffffffffffffffffffffffffffffff167f17307eab39ab6107e8899845ad3d59bd9653f200f220920489ca2b5937696c3183604051611e3c91906128c6565b60405180910390a3505050565b611e54848484611863565b611e6084848484612141565b611e9f576040517f08c379a0000000000000000000000000000000000000000000000000000000008152600401611e9690613bf7565b60405180910390fd5b50505050565b6060611eb0826113f5565b6000600660008481526020019081526020016000208054611ed09061319e565b80601f0160208091040260200160405190810160405280929190818152602001828054611efc9061319e565b8015611f495780601f10611f1e57610100808354040283529160200191611f49565b820191906000526020600020905b815481529060010190602001808311611f2c57829003601f168201915b505050505090506000611f5a6122c8565b90506000815103611f6f578192505050611fb2565b600082511115611fa4578082604051602001611f8c929190613c53565b60405160208183030381529060405292505050611fb2565b611fad846122df565b925050505b919050565b60008073ffffffffffffffffffffffffffffffffffffffff16611fd983611b5c565b73ffffffffffffffffffffffffffffffffffffffff1614159050919050565b60007f80ac58cd000000000000000000000000000000000000000000000000000000007bffffffffffffffffffffffffffffffffffffffffffffffffffffffff1916827bffffffffffffffffffffffffffffffffffffffffffffffffffffffff191614806120c357507f5b5e139f000000000000000000000000000000000000000000000000000000007bffffffffffffffffffffffffffffffffffffffffffffffffffffffff1916827bffffffffffffffffffffffffffffffffffffffffffffffffffffffff1916145b806120d357506120d282612347565b5b9050919050565b6120e483836123b1565b6120f16000848484612141565b612130576040517f08c379a000000000000000000000000000000000000000000000000000000000815260040161212790613bf7565b60405180910390fd5b505050565b50505050565b50505050565b60006121628473ffffffffffffffffffffffffffffffffffffffff166125ce565b156122bb578373ffffffffffffffffffffffffffffffffffffffff1663150b7a0261218b611440565b8786866040518563ffffffff1660e01b81526004016121ad9493929190613ccc565b6020604051808303816000875af19250505080156121e957506040513d601f19601f820116820180604052508101906121e69190613d2d565b60015b61226b573d8060008114612219576040519150601f19603f3d011682016040523d82523d6000602084013e61221e565b606091505b506000815103612263576040517f08c379a000000000000000000000000000000000000000000000000000000000815260040161225a90613bf7565b60405180910390fd5b805181602001fd5b63150b7a0260e01b7bffffffffffffffffffffffffffffffffffffffffffffffffffffffff1916817bffffffffffffffffffffffffffffffffffffffffffffffffffffffff1916149150506122c0565b600190505b949350505050565b606060405180602001604052806000815250905090565b60606122ea826113f5565b60006122f46122c8565b90506000815111612314576040518060200160405280600081525061233f565b8061231e846125f1565b60405160200161232f929190613c53565b6040516020818303038152906040525b915050919050565b60007f01ffc9a7000000000000000000000000000000000000000000000000000000007bffffffffffffffffffffffffffffffffffffffffffffffffffffffff1916827bffffffffffffffffffffffffffffffffffffffffffffffffffffffff1916149050919050565b600073ffffffffffffffffffffffffffffffffffffffff168273ffffffffffffffffffffffffffffffffffffffff1603612420576040517f08c379a000000000000000000000000000000000000000000000000000000000815260040161241790613da6565b60405180910390fd5b61242981611fb7565b15612469576040517f08c379a000000000000000000000000000000000000000000000000000000000815260040161246090613e12565b60405180910390fd5b612477600083836001612135565b61248081611fb7565b156124c0576040517f08c379a00000000000000000000000000000000000000000000000000000000081526004016124b790613e12565b60405180910390fd5b6001600360008473ffffffffffffffffffffffffffffffffffffffff1673ffffffffffffffffffffffffffffffffffffffff16815260200190815260200160002060008282540192505081905550816002600083815260200190815260200160002060006101000a81548173ffffffffffffffffffffffffffffffffffffffff021916908373ffffffffffffffffffffffffffffffffffffffff160217905550808273ffffffffffffffffffffffffffffffffffffffff16600073ffffffffffffffffffffffffffffffffffffffff167fddf252ad1be2c89b69c2b068fc378daa952ba7f163c4a11628f55a4df523b3ef60405160405180910390a46125ca60008383600161213b565b5050565b6000808273ffffffffffffffffffffffffffffffffffffffff163b119050919050565b606060006001612600846126bf565b01905060008167ffffffffffffffff81111561261f5761261e612b87565b5b6040519080825280601f01601f1916602001820160405280156126515781602001600182028036833780820191505090505b509050600082602001820190505b6001156126b4578080600190039150507f3031323334353637383961626364656600000000000000000000000000000000600a86061a8153600a85816126a8576126a7613e32565b5b0494506000850361265f575b819350505050919050565b600080600090507a184f03e93ff9f4daa797ed6e38ed64bf6a1f010000000000000000831061271d577a184f03e93ff9f4daa797ed6e38ed64bf6a1f010000000000000000838161271357612712613e32565b5b0492506040810190505b6d04ee2d6d415b85acef8100000000831061275a576d04ee2d6d415b85acef810000000083816127505761274f613e32565b5b0492506020810190505b662386f26fc10000831061278957662386f26fc10000838161277f5761277e613e32565b5b0492506010810190505b6305f5e10083106127b2576305f5e10083816127a8576127a7613e32565b5b0492506008810190505b61271083106127d75761271083816127cd576127cc613e32565b5b0492506004810190505b606483106127fa57606483816127f0576127ef613e32565b5b0492506002810190505b600a8310612809576001810190505b80915050919050565b6000604051905090565b600080fd5b600080fd5b60007fffffffff0000000000000000000000000000000000000000000000000000000082169050919050565b61285b81612826565b811461286657600080fd5b50565b60008135905061287881612852565b92915050565b6000602082840312156128945761289361281c565b5b60006128a284828501612869565b91505092915050565b60008115159050919050565b6128c0816128ab565b82525050565b60006020820190506128db60008301846128b7565b92915050565b600081519050919050565b600082825260208201905092915050565b60005b8381101561291b578082015181840152602081019050612900565b60008484015250505050565b6000601f19601f8301169050919050565b6000612943826128e1565b61294d81856128ec565b935061295d8185602086016128fd565b61296681612927565b840191505092915050565b6000602082019050818103600083015261298b8184612938565b905092915050565b6000819050919050565b6129a681612993565b81146129b157600080fd5b50565b6000813590506129c38161299d565b92915050565b6000602082840312156129df576129de61281c565b5b60006129ed848285016129b4565b91505092915050565b600073ffffffffffffffffffffffffffffffffffffffff82169050919050565b6000612a21826129f6565b9050919050565b612a3181612a16565b82525050565b6000602082019050612a4c6000830184612a28565b92915050565b612a5b81612a16565b8114612a6657600080fd5b50565b600081359050612a7881612a52565b92915050565b60008060408385031215612a9557612a9461281c565b5b6000612aa385828601612a69565b9250506020612ab4858286016129b4565b9150509250929050565b600060208284031215612ad457612ad361281c565b5b6000612ae284828501612a69565b91505092915050565b7f4e487b7100000000000000000000000000000000000000000000000000000000600052602160045260246000fd5b60058110612b2b57612b2a612aeb565b5b50565b6000819050612b3c82612b1a565b919050565b6000612b4c82612b2e565b9050919050565b612b5c81612b41565b82525050565b6000602082019050612b776000830184612b53565b92915050565b600080fd5b600080fd5b7f4e487b7100000000000000000000000000000000000000000000000000000000600052604160045260246000fd5b612bbf82612927565b810181811067ffffffffffffffff82111715612bde57612bdd612b87565b5b80604052505050565b6000612bf1612812565b9050612bfd8282612bb6565b919050565b600067ffffffffffffffff821115612c1d57612c1c612b87565b5b612c2682612927565b9050602081019050919050565b82818337600083830152505050565b6000612c55612c5084612c02565b612be7565b905082815260208101848484011115612c7157612c70612b82565b5b612c7c848285612c33565b509392505050565b600082601f830112612c9957612c98612b7d565b5b8135612ca9848260208601612c42565b91505092915050565b60008060008060008060c08789031215612ccf57612cce61281c565b5b6000612cdd89828a01612a69565b9650506020612cee89828a016129b4565b9550506040612cff89828a016129b4565b9450506060612d1089828a016129b4565b935050608087013567ffffffffffffffff811115612d3157612d30612821565b5b612d3d89828a01612c84565b92505060a087013567ffffffffffffffff811115612d5e57612d5d612821565b5b612d6a89828a01612c84565b9150509295509295509295565b612d8081612993565b82525050565b6000602082019050612d9b6000830184612d77565b92915050565b600080600060608486031215612dba57612db961281c565b5b6000612dc886828701612a69565b9350506020612dd986828701612a69565b9250506040612dea868287016129b4565b9150509250925092565b600060c082019050612e096000830189612d77565b612e166020830188612d77565b612e236040830187612d77565b612e306060830186612d77565b8181036080830152612e428185612938565b905081810360a0830152612e568184612938565b9050979650505050505050565b612e6c816128ab565b8114612e7757600080fd5b50565b600081359050612e8981612e63565b92915050565b60008060408385031215612ea657612ea561281c565b5b6000612eb485828601612a69565b9250506020612ec585828601612e7a565b9150509250929050565b600081519050919050565b600082825260208201905092915050565b6000819050602082019050919050565b612f0481612993565b82525050565b6000612f168383612efb565b60208301905092915050565b6000602082019050919050565b6000612f3a82612ecf565b612f448185612eda565b9350612f4f83612eeb565b8060005b83811015612f80578151612f678882612f0a565b9750612f7283612f22565b925050600181019050612f53565b5085935050505092915050565b60006020820190508181036000830152612fa78184612f2f565b905092915050565b600067ffffffffffffffff821115612fca57612fc9612b87565b5b612fd382612927565b9050602081019050919050565b6000612ff3612fee84612faf565b612be7565b90508281526020810184848401111561300f5761300e612b82565b5b61301a848285612c33565b509392505050565b600082601f83011261303757613036612b7d565b5b8135613047848260208601612fe0565b91505092915050565b6000806000806080858703121561306a5761306961281c565b5b600061307887828801612a69565b945050602061308987828801612a69565b935050604061309a878288016129b4565b925050606085013567ffffffffffffffff8111156130bb576130ba612821565b5b6130c787828801613022565b91505092959194509250565b600080604083850312156130ea576130e961281c565b5b60006130f885828601612a69565b925050602061310985828601612a69565b9150509250929050565b6000806040838503121561312a5761312961281c565b5b6000613138858286016129b4565b925050602083013567ffffffffffffffff81111561315957613158612821565b5b61316585828601612c84565b9150509250929050565b7f4e487b7100000000000000000000000000000000000000000000000000000000600052602260045260246000fd5b600060028204905060018216806131b657607f821691505b6020821081036131c9576131c861316f565b5b50919050565b7f4552433732313a20617070726f76616c20746f2063757272656e74206f776e6560008201527f7200000000000000000000000000000000000000000000000000000000000000602082015250565b600061322b6021836128ec565b9150613236826131cf565b604082019050919050565b6000602082019050818103600083015261325a8161321e565b9050919050565b7f4552433732313a20617070726f76652063616c6c6572206973206e6f7420746f60008201527f6b656e206f776e6572206f7220617070726f76656420666f7220616c6c000000602082015250565b60006132bd603d836128ec565b91506132c882613261565b604082019050919050565b600060208201905081810360008301526132ec816132b0565b9050919050565b7f4f6e6c792072656c69656620636f6e7472616374000000000000000000000000600082015250565b60006133296014836128ec565b9150613334826132f3565b602082019050919050565b600060208201905081810360008301526133588161331c565b9050919050565b60008190508160005260206000209050919050565b60006020601f8301049050919050565b600082821b905092915050565b6000600883026133c17fffffffffffffffffffffffffffffffffffffffffffffffffffffffffffffffff82613384565b6133cb8683613384565b95508019841693508086168417925050509392505050565b6000819050919050565b60006134086134036133fe84612993565b6133e3565b612993565b9050919050565b6000819050919050565b613422836133ed565b61343661342e8261340f565b848454613391565b825550505050565b600090565b61344b61343e565b613456818484613419565b505050565b5b8181101561347a5761346f600082613443565b60018101905061345c565b5050565b601f8211156134bf576134908161335f565b61349984613374565b810160208510156134a8578190505b6134bc6134b485613374565b83018261345b565b50505b505050565b600082821c905092915050565b60006134e2600019846008026134c4565b1980831691505092915050565b60006134fb83836134d1565b9150826002028217905092915050565b613514826128e1565b67ffffffffffffffff81111561352d5761352c612b87565b5b613537825461319e565b61354282828561347e565b600060209050601f8311600181146135755760008415613563578287015190505b61356d85826134ef565b8655506135d5565b601f1984166135838661335f565b60005b828110156135ab57848901518255600182019150602085019450602081019050613586565b868310156135c857848901516135c4601f8916826134d1565b8355505b6001600288020188555050505b505050505050565b7f4e487b7100000000000000000000000000000000000000000000000000000000600052601160045260246000fd5b600061361782612993565b915061362283612993565b925082820190508082111561363a576136396135dd565b5b92915050565b60006040820190506136556000830185612d77565b6136626020830184612d77565b9392505050565b7f4552433732313a2063616c6c6572206973206e6f7420746f6b656e206f776e6560008201527f72206f7220617070726f76656400000000000000000000000000000000000000602082015250565b60006136c5602d836128ec565b91506136d082613669565b604082019050919050565b600060208201905081810360008301526136f4816136b8565b9050919050565b7f4552433732313a20696e76616c696420746f6b656e2049440000000000000000600082015250565b60006137316018836128ec565b915061373c826136fb565b602082019050919050565b6000602082019050818103600083015261376081613724565b9050919050565b7f4552433732313a2061646472657373207a65726f206973206e6f74206120766160008201527f6c6964206f776e65720000000000000000000000000000000000000000000000602082015250565b60006137c36029836128ec565b91506137ce82613767565b604082019050919050565b600060208201905081810360008301526137f2816137b6565b9050919050565b7f4f776e61626c653a206e6577206f776e657220697320746865207a65726f206160008201527f6464726573730000000000000000000000000000000000000000000000000000602082015250565b60006138556026836128ec565b9150613860826137f9565b604082019050919050565b6000602082019050818103600083015261388481613848565b9050919050565b7f546f6b656e20646f6573206e6f74206578697374000000000000000000000000600082015250565b60006138c16014836128ec565b91506138cc8261388b565b602082019050919050565b600060208201905081810360008301526138f0816138b4565b9050919050565b7f45524337323155524953746f726167653a2055524920736574206f66206e6f6e60008201527f6578697374656e7420746f6b656e000000000000000000000000000000000000602082015250565b6000613953602e836128ec565b915061395e826138f7565b604082019050919050565b6000602082019050818103600083015261398281613946565b9050919050565b7f4552433732313a207472616e736665722066726f6d20696e636f72726563742060008201527f6f776e6572000000000000000000000000000000000000000000000000000000602082015250565b60006139e56025836128ec565b91506139f082613989565b604082019050919050565b60006020820190508181036000830152613a14816139d8565b9050919050565b7f4552433732313a207472616e7366657220746f20746865207a65726f2061646460008201527f7265737300000000000000000000000000000000000000000000000000000000602082015250565b6000613a776024836128ec565b9150613a8282613a1b565b604082019050919050565b60006020820190508181036000830152613aa681613a6a565b9050919050565b7f4f776e61626c653a2063616c6c6572206973206e6f7420746865206f776e6572600082015250565b6000613ae36020836128ec565b9150613aee82613aad565b602082019050919050565b60006020820190508181036000830152613b1281613ad6565b9050919050565b7f4552433732313a20617070726f766520746f2063616c6c657200000000000000600082015250565b6000613b4f6019836128ec565b9150613b5a82613b19565b602082019050919050565b60006020820190508181036000830152613b7e81613b42565b9050919050565b7f4552433732313a207472616e7366657220746f206e6f6e20455243373231526560008201527f63656976657220696d706c656d656e7465720000000000000000000000000000602082015250565b6000613be16032836128ec565b9150613bec82613b85565b604082019050919050565b60006020820190508181036000830152613c1081613bd4565b9050919050565b600081905092915050565b6000613c2d826128e1565b613c378185613c17565b9350613c478185602086016128fd565b80840191505092915050565b6000613c5f8285613c22565b9150613c6b8284613c22565b91508190509392505050565b600081519050919050565b600082825260208201905092915050565b6000613c9e82613c77565b613ca88185613c82565b9350613cb88185602086016128fd565b613cc181612927565b840191505092915050565b6000608082019050613ce16000830187612a28565b613cee6020830186612a28565b613cfb6040830185612d77565b8181036060830152613d0d8184613c93565b905095945050505050565b600081519050613d2781612852565b92915050565b600060208284031215613d4357613d4261281c565b5b6000613d5184828501613d18565b91505092915050565b7f4552433732313a206d696e7420746f20746865207a65726f2061646472657373600082015250565b6000613d906020836128ec565b9150613d9b82613d5a565b602082019050919050565b60006020820190508181036000830152613dbf81613d83565b9050919050565b7f4552433732313a20746f6b656e20616c7265616479206d696e74656400000000600082015250565b6000613dfc601c836128ec565b9150613e0782613dc6565b602082019050919050565b60006020820190508181036000830152613e2b81613def565b9050919050565b7f4e487b7100000000000000000000000000000000000000000000000000000000600052601260045260246000fdfea2646970667358221220848adc52496dba2af93472891dda7c0a978316d78c2943e15cb3ab3299ff95a964736f6c634300081c0033",
  "linkReferences": {},
  "deployedLinkReferences": {}
}