{
  "_format": "hh-sol-artifact-1",
  "contractName": "ReliefDonation",
  "sourceName": "contracts/ReliefDonation.sol",
  "abi": [
    {
      "inputs": [],
      "stateMutability": "nonpayable",
      "type": "constructor"
    },
    {
      "anonymous": false,
      "inputs": [
        {
          "indexed": true,
          "internalType": "uint256",
          "name": "campaignId",
          "type": "uint256"
        },
        {
          "indexed": false,
          "internalType": "string",
          "name": "name",
          "type": "string"
        },
        {
          "indexed": true,
          "internalType": "address",
          "name": "ngo",
          "type": "address"
        }
      ],
      "name": "CampaignCreated",
      "type": "event"
    },
    {
      "anonymous": false,
      "inputs": [
        {
          "indexed": true,
          "internalType": "uint256",
          "name": "campaignId",
          "type": "uint256"
        }
      ],
      "name": "CampaignDeleted",
      "type": "event"
    },
    {
      "anonymous": false,
      "inputs": [
        {
          "indexed": true,
          "internalType": "uint256",
          "name": "campaignId",
          "type": "uint256"
        },
        {
          "indexed": false,
          "internalType": "string",
          "name": "name",
          "type": "string"
        },
        {
          "indexed": true,
          "internalType": "address",
          "name": "ngo",
          "type": "address"
        }
      ],
      "name": "CampaignUpdated",
      "type": "event"
    },
    {
      "anonymous": false,
      "inputs": [
        {
          "indexed": true,
          "internalType": "uint256",
          "name": "campaignId",
          "type": "uint256"
        },
        {
          "indexed": true,
          "internalType": "address",
          "name": "verifier",
          "type": "address"
        }
      ],
      "name": "CampaignVerified",
      "type": "event"
    },
    {
      "anonymous": false,
      "inputs": [
        {
          "indexed": true,
          "internalType": "uint256",
          "name": "disbursementId",
          "type": "uint256"
        },
        {
          "indexed": true,
          "internalType": "address",
          "name": "verifier",
          "type": "address"
        }
      ],
      "name": "DisbursementVerified",
      "type": "event"
    },
    {
      "anonymous": false,
      "inputs": [
        {
          "indexed": true,
          "internalType": "uint256",
          "name": "campaignId",
          "type": "uint256"
        },
        {
          "indexed": true,
          "internalType": "address",
          "name": "donor",
          "type": "address"
        },
        {
          "indexed": false,
          "internalType": "uint256",
          "name": "amount",
          "type": "uint256"
        }
      ],
      "name": "DonationReceived",
      "type": "event"
    },
    {
      "anonymous": false,
      "inputs": [
        {
          "indexed": true,
          "internalType": "uint256",
          "name": "disbursementId",
          "type": "uint256"
        },
        {
          "indexed": false,
          "internalType": "uint256",
          "name": "campaignId",
          "type": "uint256"
        },
        {
          "indexed": false,
          "internalType": "uint256",
          "name": "amount",
          "type": "uint256"
        },
        {
          "indexed": false,
          "internalType": "string",
          "name": "purpose",
          "type": "string"
        }
      ],
      "name": "FundsDisbursed",
      "type": "event"
    },
    {
      "anonymous": false,
      "inputs": [
        {
          "indexed": false,
          "internalType": "address",
          "name": "account",
          "type": "address"
        }
      ],
      "name": "Paused",
      "type": "event"
    },
    {
      "anonymous": false,
      "inputs": [
        {
          "indexed": true,
          "internalType": "address",
          "name": "donor",
          "type": "address"
        },
        {
          "indexed": false,
          "internalType": "uint256",
          "name": "donationId",
          "type": "uint256"
        },
        {
          "indexed": false,
          "internalType": "bytes32",
          "name": "receiptHash",
          "type": "bytes32"
        }
      ],
      "name": "ReceiptGenerated",
      "type": "event"
    },
    {
      "anonymous": false,
      "inputs": [
        {
          "indexed": true,
          "internalType": "bytes32",
          "name": "role",
          "type": "bytes32"
        },
        {
          "indexed": true,
          "internalType": "bytes32",
          "name": "previousAdminRole",
          "type": "bytes32"
        },
        {
          "indexed": true,
          "internalType": "bytes32",
          "name": "newAdminRole",
          "type": "bytes32"
        }
      ],
      "name": "RoleAdminChanged",
      "type": "event"
    },
    {
      "anonymous": false,
      "inputs": [
        {
          "indexed": true,
          "internalType": "bytes32",
          "name": "role",
          "type": "bytes32"
        },
        {
          "indexed": true,
          "internalType": "address",
          "name": "account",
          "type": "address"
        },
        {
          "indexed": true,
          "internalType": "address",
          "name": "sender",
          "type": "address"
        }
      ],
      "name": "RoleGranted",
      "type": "event"
    },
    {
      "anonymous": false,
      "inputs": [
        {
          "indexed": true,
          "internalType": "bytes32",
          "name": "role",
          "type": "bytes32"
        },
        {
          "indexed": true,
          "internalType": "address",
          "name": "account",
          "type": "address"
        },
        {
          "indexed": true,
          "internalType": "address",
          "name": "sender",
          "type": "address"
        }
      ],
      "name": "RoleRevoked",
      "type": "event"
    },
    {
      "anonymous": false,
      "inputs": [
        {
          "indexed": false,
          "internalType": "address",
          "name": "account",
          "type": "address"
        }
      ],
      "name": "Unpaused",
      "type": "event"
    },
    {
      "inputs": [],
      "name": "ADMIN_ROLE",
      "outputs": [
        {
          "internalType": "bytes32",
          "name": "",
          "type": "bytes32"
        }
      ],
      "stateMutability": "view",
      "type": "function"
    },
    {
      "inputs": [],
      "name": "DEFAULT_ADMIN_ROLE",
      "outputs": [
        {
          "internalType": "bytes32",
          "name": "",
          "type": "bytes32"
        }
      ],
      "stateMutability": "view",
      "type": "function"
    },
    {
      "inputs": [],
      "name": "NGO_ROLE",
      "outputs": [
        {
          "internalType": "bytes32",
          "name": "",
          "type": "bytes32"
        }
      ],
      "stateMutability": "view",
      "type": "function"
    },
    {
      "inputs": [],
      "name": "VERIFIER_ROLE",
      "outputs": [
        {
          "internalType": "bytes32",
          "name": "",
          "type": "bytes32"
        }
      ],
      "stateMutability": "view",
      "type": "function"
    },
    {
      "inputs": [],
      "name": "campaignCounter",
      "outputs": [
        {
          "internalType": "uint256",
          "name": "",
          "type": "uint256"
        }
      ],
      "stateMutability": "view",
      "type": "function"
    },
    {
      "inputs": [
        {
          "internalType": "uint256",
          "name": "",
          "type": "uint256"
        },
        {
          "internalType": "uint256",
          "name": "",
          "type": "uint256"
        }
      ],
      "name": "campaignDisbursements",
      "outputs": [
        {
          "internalType": "uint256",
          "name": "",
          "type": "uint256"
        }
      ],
      "stateMutability": "view",
      "type": "function"
    },
    {
      "inputs": [
        {
          "internalType": "uint256",
          "name": "",
          "type": "uint256"
        }
      ],
      "name": "campaignMilestoneIndex",
      "outputs": [
        {
          "internalType": "uint256",
          "name": "",
          "type": "uint256"
        }
      ],
      "stateMutability": "view",
      "type": "function"
    },
    {
      "inputs": [
        {
          "internalType": "uint256",
          "name": "",
          "type": "uint256"
        },
        {
          "internalType": "uint256",
          "name": "",
          "type": "uint256"
        }
      ],
      "name": "campaignMilestones",
      "outputs": [
        {
          "internalType": "uint256",
          "name": "",
          "type": "uint256"
        }
      ],
      "stateMutability": "view",
      "type": "function"
    },
    {
      "inputs": [
        {
          "internalType": "uint256",
          "name": "",
          "type": "uint256"
        }
      ],
      "name": "campaigns",
      "outputs": [
        {
          "internalType": "uint256",
          "name": "id",
          "type": "uint256"
        },
        {
          "internalType": "string",
          "name": "name",
          "type": "string"
        },
        {
          "internalType": "string",
          "name": "description",
          "type": "string"
        },
        {
          "internalType": "address",
          "name": "ngoAddress",
          "type": "address"
        },
        {
          "internalType": "uint256",
          "name": "targetAmount",
          "type": "uint256"
        },
        {
          "internalType": "uint256",
          "name": "raisedAmount",
          "type": "uint256"
        },
        {
          "internalType": "uint256",
          "name": "disbursedAmount",
          "type": "uint256"
        },
        {
          "internalType": "uint256",
          "name": "startTime",
          "type": "uint256"
        },
        {
          "internalType": "uint256",
          "name": "endTime",
          "type": "uint256"
        },
        {
          "internalType": "bool",
          "name": "isVerified",
          "type": "bool"
        },
        {
          "internalType": "bool",
          "name": "isActive",
          "type": "bool"
        },
        {
          "internalType": "string",
          "name": "ipfsMetadata",
          "type": "string"
        }
      ],
      "stateMutability": "view",
      "type": "function"
    },
    {
      "inputs": [
        {
          "internalType": "string",
          "name": "_name",
          "type": "string"
        },
        {
          "internalType": "string",
          "name": "_description",
          "type": "string"
        },
        {
          "internalType": "uint256",
          "name": "_targetAmount",
          "type": "uint256"
        },
        {
          "internalType": "uint256",
          "name": "_duration",
          "type": "uint256"
        },
        {
          "internalType": "string",
          "name": "_ipfsMetadata",
          "type": "string"
        },
        {
          "internalType": "uint256[]",
          "name": "_milestones",
          "type": "uint256[]"
        }
      ],
      "name": "createCampaign",
      "outputs": [],
      "stateMutability": "nonpayable",
      "type": "function"
    },
    {
      "inputs": [
        {
          "internalType": "uint256",
          "name": "_id",
          "type": "uint256"
        }
      ],
      "name": "deleteCampaign",
      "outputs": [],
      "stateMutability": "nonpayable",
      "type": "function"
    },
    {
      "inputs": [
        {
          "internalType": "uint256",
          "name": "_campaignId",
          "type": "uint256"
        },
        {
          "internalType": "uint256",
          "name": "_amount",
          "type": "uint256"
        },
        {
          "internalType": "address",
          "name": "_recipient",
          "type": "address"
        },
        {
          "internalType": "string",
          "name": "_purpose",
          "type": "string"
        },
        {
          "internalType": "string",
          "name": "_proofOfUse",
          "type": "string"
        }
      ],
      "name": "disburseFunds",
      "outputs": [],
      "stateMutability": "nonpayable",
      "type": "function"
    },
    {
      "inputs": [],
      "name": "disbursementCounter",
      "outputs": [
        {
          "internalType": "uint256",
          "name": "",
          "type": "uint256"
        }
      ],
      "stateMutability": "view",
      "type": "function"
    },
    {
      "inputs": [
        {
          "internalType": "uint256",
          "name": "",
          "type": "uint256"
        }
      ],
      "name": "disbursements",
      "outputs": [
        {
          "internalType": "uint256",
          "name": "campaignId",
          "type": "uint256"
        },
        {
          "internalType": "uint256",
          "name": "amount",
          "type": "uint256"
        },
        {
          "internalType": "address",
          "name": "recipient",
          "type": "address"
        },
        {
          "internalType": "string",
          "name": "purpose",
          "type": "string"
        },
        {
          "internalType": "string",
          "name": "proofOfUse",
          "type": "string"
        },
        {
          "internalType": "uint256",
          "name": "timestamp",
          "type": "uint256"
        },
        {
          "internalType": "bool",
          "name": "isVerified",
          "type": "bool"
        }
      ],
      "stateMutability": "view",
      "type": "function"
    },
    {
      "inputs": [
        {
          "internalType": "uint256",
          "name": "_campaignId",
          "type": "uint256"
        },
        {
          "internalType": "string",
          "name": "_message",
          "type": "string"
        }
      ],
      "name": "donate",
      "outputs": [],
      "stateMutability": "payable",
      "type": "function"
    },
    {
      "inputs": [],
      "name": "donationCounter",
      "outputs": [
        {
          "internalType": "uint256",
          "name": "",
          "type": "uint256"
        }
      ],
      "stateMutability": "view",
      "type": "function"
    },
    {
      "inputs": [
        {
          "internalType": "uint256",
          "name": "",
          "type": "uint256"
        }
      ],
      "name": "donations",
      "outputs": [
        {
          "internalType": "address",
          "name": "donor",
          "type": "address"
        },
        {
          "internalType": "uint256",
          "name": "campaignId",
          "type": "uint256"
        },
        {
          "internalType": "uint256",
          "name": "amount",
          "type": "uint256"
        },
        {
          "internalType": "uint256",
          "name": "timestamp",
          "type": "uint256"
        },
        {
          "internalType": "string",
          "name": "message",
          "type": "string"
        }
      ],
      "stateMutability": "view",
      "type": "function"
    },
    {
      "inputs": [
        {
          "internalType": "address",
          "name": "",
          "type": "address"
        },
        {
          "internalType": "uint256",
          "name": "",
          "type": "uint256"
        }
      ],
      "name": "donorReceipts",
      "outputs": [
        {
          "internalType": "uint256",
          "name": "donationId",
          "type": "uint256"
        },
        {
          "internalType": "uint256",
          "name": "campaignId",
          "type": "uint256"
        },
        {
          "internalType": "uint256",
          "name": "amount",
          "type": "uint256"
        },
        {
          "internalType": "uint256",
          "name": "timestamp",
          "type": "uint256"
        },
        {
          "internalType": "bytes32",
          "name": "receiptHash",
          "type": "bytes32"
        }
      ],
      "stateMutability": "view",
      "type": "function"
    },
    {
      "inputs": [
        {
          "internalType": "address",
          "name": "",
          "type": "address"
        },
        {
          "internalType": "uint256",
          "name": "",
          "type": "uint256"
        }
      ],
      "name": "donorToCampaigns",
      "outputs": [
        {
          "internalType": "uint256",
          "name": "",
          "type": "uint256"
        }
      ],
      "stateMutability": "view",
      "type": "function"
    },
    {
      "inputs": [
        {
          "internalType": "uint256",
          "name": "_campaignId",
          "type": "uint256"
        }
      ],
      "name": "getCampaignDisbursements",
      "outputs": [
        {
          "internalType": "uint256[]",
          "name": "",
          "type": "uint256[]"
        }
      ],
      "stateMutability": "view",
      "type": "function"
    },
    {
      "inputs": [
        {
          "internalType": "address",
          "name": "_donor",
          "type": "address"
        }
      ],
      "name": "getDonorCampaigns",
      "outputs": [
        {
          "internalType": "uint256[]",
          "name": "",
          "type": "uint256[]"
        }
      ],
      "stateMutability": "view",
      "type": "function"
    },
    {
      "inputs": [
        {
          "internalType": "address",
          "name": "_donor",
          "type": "address"
        }
      ],
      "name": "getDonorReceipts",
      "outputs": [
        {
          "components": [
            {
              "internalType": "uint256",
              "name": "donationId",
              "type": "uint256"
            },
            {
              "internalType": "uint256",
              "name": "campaignId",
              "type": "uint256"
            },
            {
              "internalType": "uint256",
              "name": "amount",
              "type": "uint256"
            },
            {
              "internalType": "uint256",
              "name": "timestamp",
              "type": "uint256"
            },
            {
              "internalType": "bytes32",
              "name": "receiptHash",
              "type": "bytes32"
            }
          ],
          "internalType": "struct ReliefDonation.DonorReceipt[]",
          "name": "",
          "type": "tuple[]"
        }
      ],
      "stateMutability": "view",
      "type": "function"
    },
    {
      "inputs": [
        {
          "internalType": "bytes32",
          "name": "role",
          "type": "bytes32"
        }
      ],
      "name": "getRoleAdmin",
      "outputs": [
        {
          "internalType": "bytes32",
          "name": "",
          "type": "bytes32"
        }
      ],
      "stateMutability": "view",
      "type": "function"
    },
    {
      "inputs": [
        {
          "internalType": "bytes32",
          "name": "role",
          "type": "bytes32"
        },
        {
          "internalType": "address",
          "name": "account",
          "type": "address"
        }
      ],
      "name": "grantRole",
      "outputs": [],
      "stateMutability": "nonpayable",
      "type": "function"
    },
    {
      "inputs": [
        {
          "internalType": "bytes32",
          "name": "role",
          "type": "bytes32"
        },
        {
          "internalType": "address",
          "name": "account",
          "type": "address"
        }
      ],
      "name": "hasRole",
      "outputs": [
        {
          "internalType": "bool",
          "name": "",
          "type": "bool"
        }
      ],
      "stateMutability": "view",
      "type": "function"
    },
    {
      "inputs": [],
      "name": "pause",
      "outputs": [],
      "stateMutability": "nonpayable",
      "type": "function"
    },
    {
      "inputs": [],
      "name": "paused",
      "outputs": [
        {
          "internalType": "bool",
          "name": "",
          "type": "bool"
        }
      ],
      "stateMutability": "view",
      "type": "function"
    },
    {
      "inputs": [
        {
          "internalType": "address",
          "name": "_ngo",
          "type": "address"
        }
      ],
      "name": "registerNGO",
      "outputs": [],
      "stateMutability": "nonpayable",
      "type": "function"
    },
    {
      "inputs": [
        {
          "internalType": "address",
          "name": "_verifier",
          "type": "address"
        }
      ],
      "name": "registerVerifier",
      "outputs": [],
      "stateMutability": "nonpayable",
      "type": "function"
    },
    {
      "inputs": [
        {
          "internalType": "bytes32",
          "name": "role",
          "type": "bytes32"
        },
        {
          "internalType": "address",
          "name": "account",
          "type": "address"
        }
      ],
      "name": "renounceRole",
      "outputs": [],
      "stateMutability": "nonpayable",
      "type": "function"
    },
    {
      "inputs": [
        {
          "internalType": "bytes32",
          "name": "role",
          "type": "bytes32"
        },
        {
          "internalType": "address",
          "name": "account",
          "type": "address"
        }
      ],
      "name": "revokeRole",
      "outputs": [],
      "stateMutability": "nonpayable",
      "type": "function"
    },
    {
      "inputs": [
        {
          "internalType": "bytes4",
          "name": "interfaceId",
          "type": "bytes4"
        }
      ],
      "name": "supportsInterface",
      "outputs": [
        {
          "internalType": "bool",
          "name": "",
          "type": "bool"
        }
      ],
      "stateMutability": "view",
      "type": "function"
    },
    {
      "inputs": [],
      "name": "unpause",
      "outputs": [],
      "stateMutability": "nonpayable",
      "type": "function"
    },
    {
      "inputs": [
        {
          "internalType": "uint256",
          "name": "_id",
          "type": "uint256"
        },
        {
          "internalType": "string",
          "name": "_name",
          "type": "string"
        },
        {
          "internalType": "string",
          "name": "_description",
          "type": "string"
        },
        {
          "internalType": "uint256",
          "name": "_targetAmount",
          "type": "uint256"
        },
        {
          "internalType": "uint256",
          "name": "_duration",
          "type": "uint256"
        },
        {
          "internalType": "string",
          "name": "_ipfsMetadata",
          "type": "string"
        },
        {
          "internalType": "uint256[]",
          "name": "_milestones",
          "type": "uint256[]"
        }
      ],
      "name": "updateCampaign",
      "outputs": [],
      "stateMutability": "nonpayable",
      "type": "function"
    },
    {
      "inputs": [
        {
          "internalType": "uint256",
          "name": "_campaignId",
          "type": "uint256"
        }
      ],
      "name": "verifyCampaign",
      "outputs": [],
      "stateMutability": "nonpayable",
      "type": "function"
    },
    {
      "inputs": [
        {
          "internalType": "uint256",
          "name": "_disbursementId",
          "type": "uint256"
        }
      ],
      "name": "verifyDisbursement",
      "outputs": [],
      "stateMutability": "nonpayable",
      "type": "function"
    },
    {
      "inputs": [
        {
          "internalType": "address",
          "name": "_donor",
          "type": "address"
        },
        {
          "internalType": "uint256",
          "name": "_donationId",
          "type": "uint256"
        },
        {
          "internalType": "bytes32",
          "name": "_receiptHash",
          "type": "bytes32"
        }
      ],
      "name": "verifyReceipt",
      "outputs": [
        {
          "internalType": "bool",
          "name": "",
          "type": "bool"
        }
      ],
      "stateMutability": "view",
      "type": "function"
    }
  ],
  "bytecode": "0x608060405234801561001057600080fd5b50600180819055506000600260006101000a81548160ff0219169083151502179055506100466000801b3361007b60201b60201c565b6100767fa49807205ce4d355092ef5a8a18f56e8913cf4a201fbe287825b095693c217753361007b60201b60201c565b6101d9565b61008b828261016760201b60201c565b61016357600160008084815260200190815260200160002060000160008373ffffffffffffffffffffffffffffffffffffffff1673ffffffffffffffffffffffffffffffffffffffff16815260200190815260200160002060006101000a81548160ff0219169083151502179055506101086101d160201b60201c565b73ffffffffffffffffffffffffffffffffffffffff168173ffffffffffffffffffffffffffffffffffffffff16837f2f8788117e7eff1d82e926ec794901d17c78024a50270940304540a733656f0d60405160405180910390a45b5050565b600080600084815260200190815260200160002060000160008373ffffffffffffffffffffffffffffffffffffffff1673ffffffffffffffffffffffffffffffffffffffff16815260200190815260200160002060009054906101000a900460ff16905092915050565b600033905090565b6149e2806101e86000396000f3fe60806040526004361061021a5760003560e01c80638456cb5911610123578063d547741f116100ab578063e7705db61161006f578063e7705db614610845578063f10a6dfc14610870578063f52cb29b1461089b578063f8626af8146108c4578063fca604d7146109055761021a565b8063d547741f1461073c578063d9594e2b14610765578063da16c453146107a2578063dcfd8cd4146107df578063e4b2de5c146108085761021a565b8063a217fddf116100f2578063a217fddf1461066d578063aa2c4b6b14610698578063b3759b04146106c1578063ba581e53146106ea578063c639e8c5146107135761021a565b80638456cb59146105bc5780638d59d1f1146105d357806391d14854146105ef5780639a4152ab1461062c5761021a565b80633f4ba83a116101a65780635054ffa4116101755780635054ffa4146104c35780635c975abb14610500578063750954261461052b578063759701931461056857806375b238fc146105915761021a565b80633f4ba83a146104155780634040e2ad1461042c57806341285d48146104575780634e29cba6146104805761021a565b80632e4e7dd9116101ed5780632e4e7dd91461031e5780632f2ff15d1461035b5780633178492a1461038457806336568abe146103c157806338d187dd146103ea5761021a565b806301ffc9a71461021f578063141961bc1461025c5780632481e6d0146102a4578063248a9ca3146102e1575b600080fd5b34801561022b57600080fd5b5061024660048036038101906102419190612e59565b610930565b6040516102539190612ea1565b60405180910390f35b34801561026857600080fd5b50610283600480360381019061027e9190612ef2565b6109aa565b60405161029b9c9b9a99989796959493929190612fff565b60405180910390f35b3480156102b057600080fd5b506102cb60048036038101906102c69190612ef2565b610bdc565b6040516102d8919061318c565b60405180910390f35b3480156102ed57600080fd5b50610308600480360381019061030391906131e4565b610c47565b6040516103159190613220565b60405180910390f35b34801561032a57600080fd5b5061034560048036038101906103409190613267565b610c66565b604051610352919061318c565b60405180910390f35b34801561036757600080fd5b50610382600480360381019061037d9190613294565b610cfd565b005b34801561039057600080fd5b506103ab60048036038101906103a691906132d4565b610d1e565b6040516103b89190613314565b60405180910390f35b3480156103cd57600080fd5b506103e860048036038101906103e39190613294565b610d4f565b005b3480156103f657600080fd5b506103ff610dd2565b60405161040c9190613314565b60405180910390f35b34801561042157600080fd5b5061042a610dd8565b005b34801561043857600080fd5b50610441610e0d565b60405161044e9190613314565b60405180910390f35b34801561046357600080fd5b5061047e60048036038101906104799190613464565b610e13565b005b34801561048c57600080fd5b506104a760048036038101906104a29190612ef2565b6112a6565b6040516104ba9796959493929190613517565b60405180910390f35b3480156104cf57600080fd5b506104ea60048036038101906104e59190613594565b611425565b6040516104f79190612ea1565b60405180910390f35b34801561050c57600080fd5b50610515611572565b6040516105229190612ea1565b60405180910390f35b34801561053757600080fd5b50610552600480360381019061054d91906132d4565b611589565b60405161055f9190613314565b60405180910390f35b34801561057457600080fd5b5061058f600480360381019061058a9190612ef2565b6115ba565b005b34801561059d57600080fd5b506105a6611716565b6040516105b39190613220565b60405180910390f35b3480156105c857600080fd5b506105d161173a565b005b6105ed60048036038101906105e891906135e7565b61176f565b005b3480156105fb57600080fd5b5061061660048036038101906106119190613294565b611bdb565b6040516106239190612ea1565b60405180910390f35b34801561063857600080fd5b50610653600480360381019061064e9190613643565b611c45565b604051610664959493929190613683565b60405180910390f35b34801561067957600080fd5b50610682611c98565b60405161068f9190613220565b60405180910390f35b3480156106a457600080fd5b506106bf60048036038101906106ba919061379e565b611c9f565b005b3480156106cd57600080fd5b506106e860048036038101906106e3919061389b565b611e51565b005b3480156106f657600080fd5b50610711600480360381019061070c9190613267565b61209c565b005b34801561071f57600080fd5b5061073a60048036038101906107359190613267565b6120f4565b005b34801561074857600080fd5b50610763600480360381019061075e9190613294565b61214c565b005b34801561077157600080fd5b5061078c60048036038101906107879190612ef2565b61216d565b6040516107999190613314565b60405180910390f35b3480156107ae57600080fd5b506107c960048036038101906107c49190613267565b612185565b6040516107d69190613ad3565b60405180910390f35b3480156107eb57600080fd5b5061080660048036038101906108019190612ef2565b612255565b005b34801561081457600080fd5b5061082f600480360381019061082a9190613643565b612406565b60405161083c9190613314565b60405180910390f35b34801561085157600080fd5b5061085a612437565b6040516108679190613220565b60405180910390f35b34801561087c57600080fd5b5061088561245b565b6040516108929190613220565b60405180910390f35b3480156108a757600080fd5b506108c260048036038101906108bd9190612ef2565b61247f565b005b3480156108d057600080fd5b506108eb60048036038101906108e69190612ef2565b612579565b6040516108fc959493929190613af5565b60405180910390f35b34801561091157600080fd5b5061091a612657565b6040516109279190613314565b60405180910390f35b60007f7965db0b000000000000000000000000000000000000000000000000000000007bffffffffffffffffffffffffffffffffffffffffffffffffffffffff1916827bffffffffffffffffffffffffffffffffffffffffffffffffffffffff191614806109a357506109a28261265d565b5b9050919050565b60066020528060005260406000206000915090508060000154908060010180546109d390613b7e565b80601f01602080910402602001604051908101604052809291908181526020018280546109ff90613b7e565b8015610a4c5780601f10610a2157610100808354040283529160200191610a4c565b820191906000526020600020905b815481529060010190602001808311610a2f57829003601f168201915b505050505090806002018054610a6190613b7e565b80601f0160208091040260200160405190810160405280929190818152602001828054610a8d90613b7e565b8015610ada5780601f10610aaf57610100808354040283529160200191610ada565b820191906000526020600020905b815481529060010190602001808311610abd57829003601f168201915b5050505050908060030160009054906101000a900473ffffffffffffffffffffffffffffffffffffffff16908060040154908060050154908060060154908060070154908060080154908060090160009054906101000a900460ff16908060090160019054906101000a900460ff169080600a018054610b5990613b7e565b80601f0160208091040260200160405190810160405280929190818152602001828054610b8590613b7e565b8015610bd25780601f10610ba757610100808354040283529160200191610bd2565b820191906000526020600020905b815481529060010190602001808311610bb557829003601f168201915b505050505090508c565b6060600b6000838152602001908152602001600020805480602002602001604051908101604052809291908181526020018280548015610c3b57602002820191906000526020600020905b815481526020019060010190808311610c27575b50505050509050919050565b6000806000838152602001908152602001600020600101549050919050565b6060600960008373ffffffffffffffffffffffffffffffffffffffff1673ffffffffffffffffffffffffffffffffffffffff168152602001908152602001600020805480602002602001604051908101604052809291908181526020018280548015610cf157602002820191906000526020600020905b815481526020019060010190808311610cdd575b50505050509050919050565b610d0682610c47565b610d0f816126c7565b610d1983836126db565b505050565b600c6020528160005260406000208181548110610d3a57600080fd5b90600052602060002001600091509150505481565b610d576127bb565b73ffffffffffffffffffffffffffffffffffffffff168173ffffffffffffffffffffffffffffffffffffffff1614610dc4576040517f08c379a0000000000000000000000000000000000000000000000000000000008152600401610dbb90613c21565b60405180910390fd5b610dce82826127c3565b5050565b60045481565b7fa49807205ce4d355092ef5a8a18f56e8913cf4a201fbe287825b095693c21775610e02816126c7565b610e0a6128a4565b50565b60055481565b7f7409dd26ef14054436243be79996fa1ab352eb1e8f34bcf72012e7de1d1176f0610e3d816126c7565b610e45612907565b60006006600088815260200190815260200160002090503373ffffffffffffffffffffffffffffffffffffffff168160030160009054906101000a900473ffffffffffffffffffffffffffffffffffffffff1673ffffffffffffffffffffffffffffffffffffffff1614610eee576040517f08c379a0000000000000000000000000000000000000000000000000000000008152600401610ee590613c8d565b60405180910390fd5b8581600601548260050154610f039190613cdc565b1015610f44576040517f08c379a0000000000000000000000000000000000000000000000000000000008152600401610f3b90613d5c565b60405180910390fd5b6000600c6000898152602001908152602001600020805480602002602001604051908101604052809291908181526020018280548015610fa357602002820191906000526020600020905b815481526020019060010190808311610f8f575b5050505050905060008151111561109e576000600d60008a81526020019081526020016000205490508151811061100f576040517f08c379a000000000000000000000000000000000000000000000000000000000815260040161100690613dc8565b60405180910390fd5b6000606483838151811061102657611025613de8565b5b6020026020010151856005015461103d9190613e17565b6110479190613e88565b90508089856006015461105a9190613eb9565b111561109b576040517f08c379a000000000000000000000000000000000000000000000000000000000815260040161109290613f39565b60405180910390fd5b50505b600560008154809291906110b190613f59565b919050555060006008600060055481526020019081526020016000209050888160000181905550878160010181905550868160020160006101000a81548173ffffffffffffffffffffffffffffffffffffffff021916908373ffffffffffffffffffffffffffffffffffffffff16021790555085816003019081611135919061414d565b5084816004019081611147919061414d565b50428160050181905550878360060160008282546111659190613eb9565b92505081905550600b60008a8152602001908152602001600020600554908060018154018082558091505060019003906000526020600020016000909190919091505560008773ffffffffffffffffffffffffffffffffffffffff16896040516111ce90614250565b60006040518083038185875af1925050503d806000811461120b576040519150601f19603f3d011682016040523d82523d6000602084013e611210565b606091505b5050905080611254576040517f08c379a000000000000000000000000000000000000000000000000000000000815260040161124b906142b1565b60405180910390fd5b6005547f86ecbd77453596d93bd5d23a12fb3c06f86e383e88842d04c5fdd849725294958b8b8a60405161128a939291906142d1565b60405180910390a25050505061129e612956565b505050505050565b60086020528060005260406000206000915090508060000154908060010154908060020160009054906101000a900473ffffffffffffffffffffffffffffffffffffffff16908060030180546112fb90613b7e565b80601f016020809104026020016040519081016040528092919081815260200182805461132790613b7e565b80156113745780601f1061134957610100808354040283529160200191611374565b820191906000526020600020905b81548152906001019060200180831161135757829003601f168201915b50505050509080600401805461138990613b7e565b80601f01602080910402602001604051908101604052809291908181526020018280546113b590613b7e565b80156114025780601f106113d757610100808354040283529160200191611402565b820191906000526020600020905b8154815290600101906020018083116113e557829003601f168201915b5050505050908060050154908060060160009054906101000a900460ff16905087565b600080600a60008673ffffffffffffffffffffffffffffffffffffffff1673ffffffffffffffffffffffffffffffffffffffff168152602001908152602001600020805480602002602001604051908101604052809291908181526020016000905b828210156114eb57838290600052602060002090600502016040518060a00160405290816000820154815260200160018201548152602001600282015481526020016003820154815260200160048201548152505081526020019060010190611487565b50505050905060005b8151811015611564578482828151811061151157611510613de8565b5b60200260200101516000015114801561154757508382828151811061153957611538613de8565b5b602002602001015160800151145b156115575760019250505061156b565b80806001019150506114f4565b5060009150505b9392505050565b6000600260009054906101000a900460ff16905090565b600b60205281600052604060002081815481106115a557600080fd5b90600052602060002001600091509150505481565b6000801b6115c7816126c7565b6000600660008481526020019081526020016000206000015403611620576040517f08c379a00000000000000000000000000000000000000000000000000000000081526004016116179061435b565b60405180910390fd5b6006600083815260200190815260200160002060008082016000905560018201600061164c9190612d43565b60028201600061165c9190612d43565b6003820160006101000a81549073ffffffffffffffffffffffffffffffffffffffff0219169055600482016000905560058201600090556006820160009055600782016000905560088201600090556009820160006101000a81549060ff02191690556009820160016101000a81549060ff0219169055600a820160006116e39190612d43565b5050817fa61e586bd6a065bde887af9ec4705829557488d3ccdea823ab66aafd7c3aa09960405160405180910390a25050565b7fa49807205ce4d355092ef5a8a18f56e8913cf4a201fbe287825b095693c2177581565b7fa49807205ce4d355092ef5a8a18f56e8913cf4a201fbe287825b095693c21775611764816126c7565b61176c61295f565b50565b611777612907565b61177f6129c2565b600060066000848152602001908152602001600020905060008160000154036117dd576040517f08c379a00000000000000000000000000000000000000000000000000000000081526004016117d49061435b565b60405180910390fd5b8060090160019054906101000a900460ff1661182e576040517f08c379a0000000000000000000000000000000000000000000000000000000008152600401611825906143c7565b60405180910390fd5b8060090160009054906101000a900460ff1661187f576040517f08c379a000000000000000000000000000000000000000000000000000000000815260040161187690614433565b60405180910390fd5b80600801544211156118c6576040517f08c379a00000000000000000000000000000000000000000000000000000000081526004016118bd9061449f565b60405180910390fd5b60003411611909576040517f08c379a00000000000000000000000000000000000000000000000000000000081526004016119009061450b565b60405180910390fd5b6004600081548092919061191c90613f59565b919050555060006007600060045481526020019081526020016000209050338160000160006101000a81548173ffffffffffffffffffffffffffffffffffffffff021916908373ffffffffffffffffffffffffffffffffffffffff160217905550838160010181905550348160020181905550428160030181905550828160040190816119a9919061414d565b50348260050160008282546119be9190613eb9565b92505081905550600960003373ffffffffffffffffffffffffffffffffffffffff1673ffffffffffffffffffffffffffffffffffffffff168152602001908152602001600020849080600181540180825580915050600190039060005260206000200160009091909190915055600033853442600454604051602001611a48959493929190614594565b60405160208183030381529060405280519060200120905060006040518060a001604052806004548152602001878152602001348152602001428152602001838152509050600a60003373ffffffffffffffffffffffffffffffffffffffff1673ffffffffffffffffffffffffffffffffffffffff168152602001908152602001600020819080600181540180825580915050600190039060005260206000209060050201600090919091909150600082015181600001556020820151816001015560408201518160020155606082015181600301556080820151816004015550503373ffffffffffffffffffffffffffffffffffffffff16867f0b5b4c52969ff7329ecf7ee536409fda87812b15a8622bc6e8cdeab3aee14a2634604051611b719190613314565b60405180910390a33373ffffffffffffffffffffffffffffffffffffffff167faa61d5b574a283af11db9b1d18e0724a2121956fec97ff1c8a86f1578dcb55e760045484604051611bc39291906145f3565b60405180910390a250505050611bd7612956565b5050565b600080600084815260200190815260200160002060000160008373ffffffffffffffffffffffffffffffffffffffff1673ffffffffffffffffffffffffffffffffffffffff16815260200190815260200160002060009054906101000a900460ff16905092915050565b600a6020528160005260406000208181548110611c6157600080fd5b9060005260206000209060050201600091509150508060000154908060010154908060020154908060030154908060040154905085565b6000801b81565b7f7409dd26ef14054436243be79996fa1ab352eb1e8f34bcf72012e7de1d1176f0611cc9816126c7565b60036000815480929190611cdc90613f59565b919050555060006006600060035481526020019081526020016000209050600354816000018190555087816001019081611d16919061414d565b5086816002019081611d28919061414d565b50338160030160006101000a81548173ffffffffffffffffffffffffffffffffffffffff021916908373ffffffffffffffffffffffffffffffffffffffff1602179055508581600401819055504281600701819055508442611d8a9190613eb9565b816008018190555060018160090160016101000a81548160ff0219169083151502179055508381600a019081611dc0919061414d565b50600083511115611df65782600c600060035481526020019081526020016000209080519060200190611df4929190612d83565b505b3373ffffffffffffffffffffffffffffffffffffffff166003547f2750eae5c1c1d8000d7e674f15576524a1b7e24f4a33052e9d80ce3889556e398a604051611e3f919061461c565b60405180910390a35050505050505050565b7f7409dd26ef14054436243be79996fa1ab352eb1e8f34bcf72012e7de1d1176f0611e7b816126c7565b6000600660008a815260200190815260200160002090506000816000015403611ed9576040517f08c379a0000000000000000000000000000000000000000000000000000000008152600401611ed09061435b565b60405180910390fd5b8060090160019054906101000a900460ff16611f2a576040517f08c379a0000000000000000000000000000000000000000000000000000000008152600401611f21906143c7565b60405180910390fd5b3373ffffffffffffffffffffffffffffffffffffffff168160030160009054906101000a900473ffffffffffffffffffffffffffffffffffffffff1673ffffffffffffffffffffffffffffffffffffffff1614611fbc576040517f08c379a0000000000000000000000000000000000000000000000000000000008152600401611fb390613c8d565b60405180910390fd5b87816001019081611fcd919061414d565b5086816002019081611fdf919061414d565b508581600401819055508442611ff59190613eb9565b81600801819055508381600a01908161200e919061414d565b506000835111156120425782600c60008b81526020019081526020016000209080519060200190612040929190612d83565b505b3373ffffffffffffffffffffffffffffffffffffffff16897f18473665c8be05a94a7d6f15d87daedca3599a0d86c8a80c8a560f1f602438b88a604051612089919061461c565b60405180910390a3505050505050505050565b7fa49807205ce4d355092ef5a8a18f56e8913cf4a201fbe287825b095693c217756120c6816126c7565b6120f07f7409dd26ef14054436243be79996fa1ab352eb1e8f34bcf72012e7de1d1176f083610cfd565b5050565b7fa49807205ce4d355092ef5a8a18f56e8913cf4a201fbe287825b095693c2177561211e816126c7565b6121487f0ce23c3e399818cfee81a7ab0880f714e53d7672b08df0fa62f2843416e1ea0983610cfd565b5050565b61215582610c47565b61215e816126c7565b61216883836127c3565b505050565b600d6020528060005260406000206000915090505481565b6060600a60008373ffffffffffffffffffffffffffffffffffffffff1673ffffffffffffffffffffffffffffffffffffffff168152602001908152602001600020805480602002602001604051908101604052809291908181526020016000905b8282101561224a57838290600052602060002090600502016040518060a001604052908160008201548152602001600182015481526020016002820154815260200160038201548152602001600482015481525050815260200190600101906121e6565b505050509050919050565b7f0ce23c3e399818cfee81a7ab0880f714e53d7672b08df0fa62f2843416e1ea0961227f816126c7565b60006008600084815260200190815260200160002060000154036122d8576040517f08c379a00000000000000000000000000000000000000000000000000000000081526004016122cf9061468a565b60405180910390fd5b60016008600084815260200190815260200160002060060160006101000a81548160ff0219169083151502179055506000600860008481526020019081526020016000206000015490506000600c600083815260200190815260200160002080548060200260200160405190810160405280929190818152602001828054801561238157602002820191906000526020600020905b81548152602001906001019080831161236d575b505050505090506000815111156123bc57600d600083815260200190815260200160002060008154809291906123b690613f59565b91905055505b3373ffffffffffffffffffffffffffffffffffffffff16847f247ef05b027b05f5ac8a15d896f18f21d4b78d3fd6aae24ae954c1b528f4f9e960405160405180910390a350505050565b6009602052816000526040600020818154811061242257600080fd5b90600052602060002001600091509150505481565b7f0ce23c3e399818cfee81a7ab0880f714e53d7672b08df0fa62f2843416e1ea0981565b7f7409dd26ef14054436243be79996fa1ab352eb1e8f34bcf72012e7de1d1176f081565b7f0ce23c3e399818cfee81a7ab0880f714e53d7672b08df0fa62f2843416e1ea096124a9816126c7565b6000600660008481526020019081526020016000206000015403612502576040517f08c379a00000000000000000000000000000000000000000000000000000000081526004016124f99061435b565b60405180910390fd5b60016006600084815260200190815260200160002060090160006101000a81548160ff0219169083151502179055503373ffffffffffffffffffffffffffffffffffffffff16827fcd3ac142ca63f77a9b68e9d6ca66363c24d59be6fade6c25b9ef29c1cd0a82dd60405160405180910390a35050565b60076020528060005260406000206000915090508060000160009054906101000a900473ffffffffffffffffffffffffffffffffffffffff16908060010154908060020154908060030154908060040180546125d490613b7e565b80601f016020809104026020016040519081016040528092919081815260200182805461260090613b7e565b801561264d5780601f106126225761010080835404028352916020019161264d565b820191906000526020600020905b81548152906001019060200180831161263057829003601f168201915b5050505050905085565b60035481565b60007f01ffc9a7000000000000000000000000000000000000000000000000000000007bffffffffffffffffffffffffffffffffffffffffffffffffffffffff1916827bffffffffffffffffffffffffffffffffffffffffffffffffffffffff1916149050919050565b6126d8816126d36127bb565b612a0c565b50565b6126e58282611bdb565b6127b757600160008084815260200190815260200160002060000160008373ffffffffffffffffffffffffffffffffffffffff1673ffffffffffffffffffffffffffffffffffffffff16815260200190815260200160002060006101000a81548160ff02191690831515021790555061275c6127bb565b73ffffffffffffffffffffffffffffffffffffffff168173ffffffffffffffffffffffffffffffffffffffff16837f2f8788117e7eff1d82e926ec794901d17c78024a50270940304540a733656f0d60405160405180910390a45b5050565b600033905090565b6127cd8282611bdb565b156128a057600080600084815260200190815260200160002060000160008373ffffffffffffffffffffffffffffffffffffffff1673ffffffffffffffffffffffffffffffffffffffff16815260200190815260200160002060006101000a81548160ff0219169083151502179055506128456127bb565b73ffffffffffffffffffffffffffffffffffffffff168173ffffffffffffffffffffffffffffffffffffffff16837ff6391f5c32d9c69d2a47ea670b442974b53935d1edc7fd64eb21e047a839171b60405160405180910390a45b5050565b6128ac612a91565b6000600260006101000a81548160ff0219169083151502179055507f5db9ee0a495bf2e6ff9c91a7834c1ba4fdd244a5e8aa4e537bd38aeae4b073aa6128f06127bb565b6040516128fd91906146aa565b60405180910390a1565b60026001540361294c576040517f08c379a000000000000000000000000000000000000000000000000000000000815260040161294390614711565b60405180910390fd5b6002600181905550565b60018081905550565b6129676129c2565b6001600260006101000a81548160ff0219169083151502179055507f62e78cea01bee320cd4e420270b5ea74000d11b0c9f74754ebdbfc544b05a2586129ab6127bb565b6040516129b891906146aa565b60405180910390a1565b6129ca611572565b15612a0a576040517f08c379a0000000000000000000000000000000000000000000000000000000008152600401612a019061477d565b60405180910390fd5b565b612a168282611bdb565b612a8d57612a2381612ada565b612a318360001c6020612b07565b604051602001612a42929190614871565b6040516020818303038152906040526040517f08c379a0000000000000000000000000000000000000000000000000000000008152600401612a84919061461c565b60405180910390fd5b5050565b612a99611572565b612ad8576040517f08c379a0000000000000000000000000000000000000000000000000000000008152600401612acf906148f7565b60405180910390fd5b565b6060612b008273ffffffffffffffffffffffffffffffffffffffff16601460ff16612b07565b9050919050565b606060006002836002612b1a9190613e17565b612b249190613eb9565b67ffffffffffffffff811115612b3d57612b3c613339565b5b6040519080825280601f01601f191660200182016040528015612b6f5781602001600182028036833780820191505090505b5090507f300000000000000000000000000000000000000000000000000000000000000081600081518110612ba757612ba6613de8565b5b60200101907effffffffffffffffffffffffffffffffffffffffffffffffffffffffffffff1916908160001a9053507f780000000000000000000000000000000000000000000000000000000000000081600181518110612c0b57612c0a613de8565b5b60200101907effffffffffffffffffffffffffffffffffffffffffffffffffffffffffffff1916908160001a90535060006001846002612c4b9190613e17565b612c559190613eb9565b90505b6001811115612cf5577f3031323334353637383961626364656600000000000000000000000000000000600f861660108110612c9757612c96613de8565b5b1a60f81b828281518110612cae57612cad613de8565b5b60200101907effffffffffffffffffffffffffffffffffffffffffffffffffffffffffffff1916908160001a905350600485901c945080612cee90614917565b9050612c58565b5060008414612d39576040517f08c379a0000000000000000000000000000000000000000000000000000000008152600401612d309061498c565b60405180910390fd5b8091505092915050565b508054612d4f90613b7e565b6000825580601f10612d615750612d80565b601f016020900490600052602060002090810190612d7f9190612dd0565b5b50565b828054828255906000526020600020908101928215612dbf579160200282015b82811115612dbe578251825591602001919060010190612da3565b5b509050612dcc9190612dd0565b5090565b5b80821115612de9576000816000905550600101612dd1565b5090565b6000604051905090565b600080fd5b600080fd5b60007fffffffff0000000000000000000000000000000000000000000000000000000082169050919050565b612e3681612e01565b8114612e4157600080fd5b50565b600081359050612e5381612e2d565b92915050565b600060208284031215612e6f57612e6e612df7565b5b6000612e7d84828501612e44565b91505092915050565b60008115159050919050565b612e9b81612e86565b82525050565b6000602082019050612eb66000830184612e92565b92915050565b6000819050919050565b612ecf81612ebc565b8114612eda57600080fd5b50565b600081359050612eec81612ec6565b92915050565b600060208284031215612f0857612f07612df7565b5b6000612f1684828501612edd565b91505092915050565b612f2881612ebc565b82525050565b600081519050919050565b600082825260208201905092915050565b60005b83811015612f68578082015181840152602081019050612f4d565b60008484015250505050565b6000601f19601f8301169050919050565b6000612f9082612f2e565b612f9a8185612f39565b9350612faa818560208601612f4a565b612fb381612f74565b840191505092915050565b600073ffffffffffffffffffffffffffffffffffffffff82169050919050565b6000612fe982612fbe565b9050919050565b612ff981612fde565b82525050565b600061018082019050613015600083018f612f1f565b8181036020830152613027818e612f85565b9050818103604083015261303b818d612f85565b905061304a606083018c612ff0565b613057608083018b612f1f565b61306460a083018a612f1f565b61307160c0830189612f1f565b61307e60e0830188612f1f565b61308c610100830187612f1f565b61309a610120830186612e92565b6130a8610140830185612e92565b8181036101608301526130bb8184612f85565b90509d9c50505050505050505050505050565b600081519050919050565b600082825260208201905092915050565b6000819050602082019050919050565b61310381612ebc565b82525050565b600061311583836130fa565b60208301905092915050565b6000602082019050919050565b6000613139826130ce565b61314381856130d9565b935061314e836130ea565b8060005b8381101561317f5781516131668882613109565b975061317183613121565b925050600181019050613152565b5085935050505092915050565b600060208201905081810360008301526131a6818461312e565b905092915050565b6000819050919050565b6131c1816131ae565b81146131cc57600080fd5b50565b6000813590506131de816131b8565b92915050565b6000602082840312156131fa576131f9612df7565b5b6000613208848285016131cf565b91505092915050565b61321a816131ae565b82525050565b60006020820190506132356000830184613211565b92915050565b61324481612fde565b811461324f57600080fd5b50565b6000813590506132618161323b565b92915050565b60006020828403121561327d5761327c612df7565b5b600061328b84828501613252565b91505092915050565b600080604083850312156132ab576132aa612df7565b5b60006132b9858286016131cf565b92505060206132ca85828601613252565b9150509250929050565b600080604083850312156132eb576132ea612df7565b5b60006132f985828601612edd565b925050602061330a85828601612edd565b9150509250929050565b60006020820190506133296000830184612f1f565b92915050565b600080fd5b600080fd5b7f4e487b7100000000000000000000000000000000000000000000000000000000600052604160045260246000fd5b61337182612f74565b810181811067ffffffffffffffff821117156133905761338f613339565b5b80604052505050565b60006133a3612ded565b90506133af8282613368565b919050565b600067ffffffffffffffff8211156133cf576133ce613339565b5b6133d882612f74565b9050602081019050919050565b82818337600083830152505050565b6000613407613402846133b4565b613399565b90508281526020810184848401111561342357613422613334565b5b61342e8482856133e5565b509392505050565b600082601f83011261344b5761344a61332f565b5b813561345b8482602086016133f4565b91505092915050565b600080600080600060a086880312156134805761347f612df7565b5b600061348e88828901612edd565b955050602061349f88828901612edd565b94505060406134b088828901613252565b935050606086013567ffffffffffffffff8111156134d1576134d0612dfc565b5b6134dd88828901613436565b925050608086013567ffffffffffffffff8111156134fe576134fd612dfc565b5b61350a88828901613436565b9150509295509295909350565b600060e08201905061352c600083018a612f1f565b6135396020830189612f1f565b6135466040830188612ff0565b81810360608301526135588187612f85565b9050818103608083015261356c8186612f85565b905061357b60a0830185612f1f565b61358860c0830184612e92565b98975050505050505050565b6000806000606084860312156135ad576135ac612df7565b5b60006135bb86828701613252565b93505060206135cc86828701612edd565b92505060406135dd868287016131cf565b9150509250925092565b600080604083850312156135fe576135fd612df7565b5b600061360c85828601612edd565b925050602083013567ffffffffffffffff81111561362d5761362c612dfc565b5b61363985828601613436565b9150509250929050565b6000806040838503121561365a57613659612df7565b5b600061366885828601613252565b925050602061367985828601612edd565b9150509250929050565b600060a0820190506136986000830188612f1f565b6136a56020830187612f1f565b6136b26040830186612f1f565b6136bf6060830185612f1f565b6136cc6080830184613211565b9695505050505050565b600067ffffffffffffffff8211156136f1576136f0613339565b5b602082029050602081019050919050565b600080fd5b600061371a613715846136d6565b613399565b9050808382526020820190506020840283018581111561373d5761373c613702565b5b835b8181101561376657806137528882612edd565b84526020840193505060208101905061373f565b5050509392505050565b600082601f8301126137855761378461332f565b5b8135613795848260208601613707565b91505092915050565b60008060008060008060c087890312156137bb576137ba612df7565b5b600087013567ffffffffffffffff8111156137d9576137d8612dfc565b5b6137e589828a01613436565b965050602087013567ffffffffffffffff81111561380657613805612dfc565b5b61381289828a01613436565b955050604061382389828a01612edd565b945050606061383489828a01612edd565b935050608087013567ffffffffffffffff81111561385557613854612dfc565b5b61386189828a01613436565b92505060a087013567ffffffffffffffff81111561388257613881612dfc565b5b61388e89828a01613770565b9150509295509295509295565b600080600080600080600060e0888a0312156138ba576138b9612df7565b5b60006138c88a828b01612edd565b975050602088013567ffffffffffffffff8111156138e9576138e8612dfc565b5b6138f58a828b01613436565b965050604088013567ffffffffffffffff81111561391657613915612dfc565b5b6139228a828b01613436565b95505060606139338a828b01612edd565b94505060806139448a828b01612edd565b93505060a088013567ffffffffffffffff81111561396557613964612dfc565b5b6139718a828b01613436565b92505060c088013567ffffffffffffffff81111561399257613991612dfc565b5b61399e8a828b01613770565b91505092959891949750929550565b600081519050919050565b600082825260208201905092915050565b6000819050602082019050919050565b6139e2816131ae565b82525050565b60a0820160008201516139fe60008501826130fa565b506020820151613a1160208501826130fa565b506040820151613a2460408501826130fa565b506060820151613a3760608501826130fa565b506080820151613a4a60808501826139d9565b50505050565b6000613a5c83836139e8565b60a08301905092915050565b6000602082019050919050565b6000613a80826139ad565b613a8a81856139b8565b9350613a95836139c9565b8060005b83811015613ac6578151613aad8882613a50565b9750613ab883613a68565b925050600181019050613a99565b5085935050505092915050565b60006020820190508181036000830152613aed8184613a75565b905092915050565b600060a082019050613b0a6000830188612ff0565b613b176020830187612f1f565b613b246040830186612f1f565b613b316060830185612f1f565b8181036080830152613b438184612f85565b90509695505050505050565b7f4e487b7100000000000000000000000000000000000000000000000000000000600052602260045260246000fd5b60006002820490506001821680613b9657607f821691505b602082108103613ba957613ba8613b4f565b5b50919050565b7f416363657373436f6e74726f6c3a2063616e206f6e6c792072656e6f756e636560008201527f20726f6c657320666f722073656c660000000000000000000000000000000000602082015250565b6000613c0b602f83612f39565b9150613c1682613baf565b604082019050919050565b60006020820190508181036000830152613c3a81613bfe565b9050919050565b7f4e6f742063616d706169676e206f776e65720000000000000000000000000000600082015250565b6000613c77601283612f39565b9150613c8282613c41565b602082019050919050565b60006020820190508181036000830152613ca681613c6a565b9050919050565b7f4e487b7100000000000000000000000000000000000000000000000000000000600052601160045260246000fd5b6000613ce782612ebc565b9150613cf283612ebc565b9250828203905081811115613d0a57613d09613cad565b5b92915050565b7f496e73756666696369656e742066756e64730000000000000000000000000000600082015250565b6000613d46601283612f39565b9150613d5182613d10565b602082019050919050565b60006020820190508181036000830152613d7581613d39565b9050919050565b7f416c6c206d696c6573746f6e657320636f6d706c657465640000000000000000600082015250565b6000613db2601883612f39565b9150613dbd82613d7c565b602082019050919050565b60006020820190508181036000830152613de181613da5565b9050919050565b7f4e487b7100000000000000000000000000000000000000000000000000000000600052603260045260246000fd5b6000613e2282612ebc565b9150613e2d83612ebc565b9250828202613e3b81612ebc565b91508282048414831517613e5257613e51613cad565b5b5092915050565b7f4e487b7100000000000000000000000000000000000000000000000000000000600052601260045260246000fd5b6000613e9382612ebc565b9150613e9e83612ebc565b925082613eae57613ead613e59565b5b828204905092915050565b6000613ec482612ebc565b9150613ecf83612ebc565b9250828201905080821115613ee757613ee6613cad565b5b92915050565b7f45786365656473206d696c6573746f6e65206c696d6974000000000000000000600082015250565b6000613f23601783612f39565b9150613f2e82613eed565b602082019050919050565b60006020820190508181036000830152613f5281613f16565b9050919050565b6000613f6482612ebc565b91507fffffffffffffffffffffffffffffffffffffffffffffffffffffffffffffffff8203613f9657613f95613cad565b5b600182019050919050565b60008190508160005260206000209050919050565b60006020601f8301049050919050565b600082821b905092915050565b6000600883026140037fffffffffffffffffffffffffffffffffffffffffffffffffffffffffffffffff82613fc6565b61400d8683613fc6565b95508019841693508086168417925050509392505050565b6000819050919050565b600061404a61404561404084612ebc565b614025565b612ebc565b9050919050565b6000819050919050565b6140648361402f565b61407861407082614051565b848454613fd3565b825550505050565b600090565b61408d614080565b61409881848461405b565b505050565b5b818110156140bc576140b1600082614085565b60018101905061409e565b5050565b601f821115614101576140d281613fa1565b6140db84613fb6565b810160208510156140ea578190505b6140fe6140f685613fb6565b83018261409d565b50505b505050565b600082821c905092915050565b600061412460001984600802614106565b1980831691505092915050565b600061413d8383614113565b9150826002028217905092915050565b61415682612f2e565b67ffffffffffffffff81111561416f5761416e613339565b5b6141798254613b7e565b6141848282856140c0565b600060209050601f8311600181146141b757600084156141a5578287015190505b6141af8582614131565b865550614217565b601f1984166141c586613fa1565b60005b828110156141ed578489015182556001820191506020850194506020810190506141c8565b8683101561420a5784890151614206601f891682614113565b8355505b6001600288020188555050505b505050505050565b600081905092915050565b50565b600061423a60008361421f565b91506142458261422a565b600082019050919050565b600061425b8261422d565b9150819050919050565b7f5472616e73666572206661696c65640000000000000000000000000000000000600082015250565b600061429b600f83612f39565b91506142a682614265565b602082019050919050565b600060208201905081810360008301526142ca8161428e565b9050919050565b60006060820190506142e66000830186612f1f565b6142f36020830185612f1f565b81810360408301526143058184612f85565b9050949350505050565b7f43616d706169676e20646f6573206e6f74206578697374000000000000000000600082015250565b6000614345601783612f39565b91506143508261430f565b602082019050919050565b6000602082019050818103600083015261437481614338565b9050919050565b7f43616d706169676e206973206e6f742061637469766500000000000000000000600082015250565b60006143b1601683612f39565b91506143bc8261437b565b602082019050919050565b600060208201905081810360008301526143e0816143a4565b9050919050565b7f43616d706169676e206e6f742076657269666965640000000000000000000000600082015250565b600061441d601583612f39565b9150614428826143e7565b602082019050919050565b6000602082019050818103600083015261444c81614410565b9050919050565b7f43616d706169676e2068617320656e6465640000000000000000000000000000600082015250565b6000614489601283612f39565b915061449482614453565b602082019050919050565b600060208201905081810360008301526144b88161447c565b9050919050565b7f446f6e6174696f6e206d7573742062652067726561746572207468616e203000600082015250565b60006144f5601f83612f39565b9150614500826144bf565b602082019050919050565b60006020820190508181036000830152614524816144e8565b9050919050565b60008160601b9050919050565b60006145438261452b565b9050919050565b600061455582614538565b9050919050565b61456d61456882612fde565b61454a565b82525050565b6000819050919050565b61458e61458982612ebc565b614573565b82525050565b60006145a0828861455c565b6014820191506145b0828761457d565b6020820191506145c0828661457d565b6020820191506145d0828561457d565b6020820191506145e0828461457d565b6020820191508190509695505050505050565b60006040820190506146086000830185612f1f565b6146156020830184613211565b9392505050565b600060208201905081810360008301526146368184612f85565b905092915050565b7f44697362757273656d656e7420646f6573206e6f742065786973740000000000600082015250565b6000614674601b83612f39565b915061467f8261463e565b602082019050919050565b600060208201905081810360008301526146a381614667565b9050919050565b60006020820190506146bf6000830184612ff0565b92915050565b7f5265656e7472616e637947756172643a207265656e7472616e742063616c6c00600082015250565b60006146fb601f83612f39565b9150614706826146c5565b602082019050919050565b6000602082019050818103600083015261472a816146ee565b9050919050565b7f5061757361626c653a2070617573656400000000000000000000000000000000600082015250565b6000614767601083612f39565b915061477282614731565b602082019050919050565b600060208201905081810360008301526147968161475a565b9050919050565b600081905092915050565b7f416363657373436f6e74726f6c3a206163636f756e7420000000000000000000600082015250565b60006147de60178361479d565b91506147e9826147a8565b601782019050919050565b60006147ff82612f2e565b614809818561479d565b9350614819818560208601612f4a565b80840191505092915050565b7f206973206d697373696e6720726f6c6520000000000000000000000000000000600082015250565b600061485b60118361479d565b915061486682614825565b601182019050919050565b600061487c826147d1565b915061488882856147f4565b91506148938261484e565b915061489f82846147f4565b91508190509392505050565b7f5061757361626c653a206e6f7420706175736564000000000000000000000000600082015250565b60006148e1601483612f39565b91506148ec826148ab565b602082019050919050565b60006020820190508181036000830152614910816148d4565b9050919050565b600061492282612ebc565b91506000820361493557614934613cad565b5b600182039050919050565b7f537472696e67733a20686578206c656e67746820696e73756666696369656e74600082015250565b6000614976602083612f39565b915061498182614940565b602082019050919050565b600060208201905081810360008301526149a581614969565b905091905056fea2646970667358221220db6ddad1af55dc6731b4e90a1eaecc6fa6b34bc41d38eb8ba1497b6905197bb564736f6c634300081c0033",
  "linkReferences": {},
  "deployedLinkReferences": {}
}