{
  "_format": "hh-sol-artifact-1",
  "contractName": "ReliefDonation",
  "sourceName": "contracts/ReliefDonation.sol",
  "abi": [
    {
      "inputs": [],
      "stateMutability": "nonpayable",
      "type": "constructor"
    },
    {
      "anonymous": false,
      "inputs": [
        {
          "indexed": true,
          "internalType": "uint256",
          "name": "campaignId",
          "type": "uint256"
        },
        {
          "indexed": false,
          "internalType": "string",
          "name": "name",
          "type": "string"
        },
        {
          "indexed": true,
          "internalType": "address",
          "name": "ngo",
          "type": "address"
        }
      ],
      "name": "CampaignCreated",
      "type": "event"
    },
    {
      "anonymous": false,
      "inputs": [
        {
          "indexed": true,
          "internalType": "uint256",
          "name": "campaignId",
          "type": "uint256"
        },
        {
          "indexed": false,
          "internalType": "string",
          "name": "name",
          "type": "string"
        },
        {
          "indexed": true,
          "internalType": "address",
          "name": "ngo",
          "type": "address"
        }
      ],
      "name": "CampaignUpdated",
      "type": "event"
    },
    {
      "anonymous": false,
      "inputs": [
        {
          "indexed": true,
          "internalType": "uint256",
          "name": "campaignId",
          "type": "uint256"
        },
        {
          "indexed": true,
          "internalType": "address",
          "name": "verifier",
          "type": "address"
        }
      ],
      "name": "CampaignVerified",
      "type": "event"
    },
    {
      "anonymous": false,
      "inputs": [
        {
          "indexed": true,
          "internalType": "uint256",
          "name": "disbursementId",
          "type": "uint256"
        },
        {
          "indexed": true,
          "internalType": "address",
          "name": "verifier",
          "type": "address"
        }
      ],
      "name": "DisbursementVerified",
      "type": "event"
    },
    {
      "anonymous": false,
      "inputs": [
        {
          "indexed": true,
          "internalType": "uint256",
          "name": "campaignId",
          "type": "uint256"
        },
        {
          "indexed": true,
          "internalType": "address",
          "name": "donor",
          "type": "address"
        },
        {
          "indexed": false,
          "internalType": "uint256",
          "name": "amount",
          "type": "uint256"
        }
      ],
      "name": "DonationReceived",
      "type": "event"
    },
    {
      "anonymous": false,
      "inputs": [
        {
          "indexed": true,
          "internalType": "uint256",
          "name": "disbursementId",
          "type": "uint256"
        },
        {
          "indexed": false,
          "internalType": "uint256",
          "name": "campaignId",
          "type": "uint256"
        },
        {
          "indexed": false,
          "internalType": "uint256",
          "name": "amount",
          "type": "uint256"
        },
        {
          "indexed": false,
          "internalType": "string",
          "name": "purpose",
          "type": "string"
        }
      ],
      "name": "FundsDisbursed",
      "type": "event"
    },
    {
      "anonymous": false,
      "inputs": [
        {
          "indexed": false,
          "internalType": "address",
          "name": "account",
          "type": "address"
        }
      ],
      "name": "Paused",
      "type": "event"
    },
    {
      "anonymous": false,
      "inputs": [
        {
          "indexed": true,
          "internalType": "address",
          "name": "donor",
          "type": "address"
        },
        {
          "indexed": false,
          "internalType": "uint256",
          "name": "donationId",
          "type": "uint256"
        },
        {
          "indexed": false,
          "internalType": "bytes32",
          "name": "receiptHash",
          "type": "bytes32"
        }
      ],
      "name": "ReceiptGenerated",
      "type": "event"
    },
    {
      "anonymous": false,
      "inputs": [
        {
          "indexed": true,
          "internalType": "bytes32",
          "name": "role",
          "type": "bytes32"
        },
        {
          "indexed": true,
          "internalType": "bytes32",
          "name": "previousAdminRole",
          "type": "bytes32"
        },
        {
          "indexed": true,
          "internalType": "bytes32",
          "name": "newAdminRole",
          "type": "bytes32"
        }
      ],
      "name": "RoleAdminChanged",
      "type": "event"
    },
    {
      "anonymous": false,
      "inputs": [
        {
          "indexed": true,
          "internalType": "bytes32",
          "name": "role",
          "type": "bytes32"
        },
        {
          "indexed": true,
          "internalType": "address",
          "name": "account",
          "type": "address"
        },
        {
          "indexed": true,
          "internalType": "address",
          "name": "sender",
          "type": "address"
        }
      ],
      "name": "RoleGranted",
      "type": "event"
    },
    {
      "anonymous": false,
      "inputs": [
        {
          "indexed": true,
          "internalType": "bytes32",
          "name": "role",
          "type": "bytes32"
        },
        {
          "indexed": true,
          "internalType": "address",
          "name": "account",
          "type": "address"
        },
        {
          "indexed": true,
          "internalType": "address",
          "name": "sender",
          "type": "address"
        }
      ],
      "name": "RoleRevoked",
      "type": "event"
    },
    {
      "anonymous": false,
      "inputs": [
        {
          "indexed": false,
          "internalType": "address",
          "name": "account",
          "type": "address"
        }
      ],
      "name": "Unpaused",
      "type": "event"
    },
    {
      "inputs": [],
      "name": "ADMIN_ROLE",
      "outputs": [
        {
          "internalType": "bytes32",
          "name": "",
          "type": "bytes32"
        }
      ],
      "stateMutability": "view",
      "type": "function"
    },
    {
      "inputs": [],
      "name": "DEFAULT_ADMIN_ROLE",
      "outputs": [
        {
          "internalType": "bytes32",
          "name": "",
          "type": "bytes32"
        }
      ],
      "stateMutability": "view",
      "type": "function"
    },
    {
      "inputs": [],
      "name": "NGO_ROLE",
      "outputs": [
        {
          "internalType": "bytes32",
          "name": "",
          "type": "bytes32"
        }
      ],
      "stateMutability": "view",
      "type": "function"
    },
    {
      "inputs": [],
      "name": "VERIFIER_ROLE",
      "outputs": [
        {
          "internalType": "bytes32",
          "name": "",
          "type": "bytes32"
        }
      ],
      "stateMutability": "view",
      "type": "function"
    },
    {
      "inputs": [],
      "name": "campaignCounter",
      "outputs": [
        {
          "internalType": "uint256",
          "name": "",
          "type": "uint256"
        }
      ],
      "stateMutability": "view",
      "type": "function"
    },
    {
      "inputs": [
        {
          "internalType": "uint256",
          "name": "",
          "type": "uint256"
        },
        {
          "internalType": "uint256",
          "name": "",
          "type": "uint256"
        }
      ],
      "name": "campaignDisbursements",
      "outputs": [
        {
          "internalType": "uint256",
          "name": "",
          "type": "uint256"
        }
      ],
      "stateMutability": "view",
      "type": "function"
    },
    {
      "inputs": [
        {
          "internalType": "uint256",
          "name": "",
          "type": "uint256"
        }
      ],
      "name": "campaignMilestoneIndex",
      "outputs": [
        {
          "internalType": "uint256",
          "name": "",
          "type": "uint256"
        }
      ],
      "stateMutability": "view",
      "type": "function"
    },
    {
      "inputs": [
        {
          "internalType": "uint256",
          "name": "",
          "type": "uint256"
        },
        {
          "internalType": "uint256",
          "name": "",
          "type": "uint256"
        }
      ],
      "name": "campaignMilestones",
      "outputs": [
        {
          "internalType": "uint256",
          "name": "",
          "type": "uint256"
        }
      ],
      "stateMutability": "view",
      "type": "function"
    },
    {
      "inputs": [
        {
          "internalType": "uint256",
          "name": "",
          "type": "uint256"
        }
      ],
      "name": "campaigns",
      "outputs": [
        {
          "internalType": "uint256",
          "name": "id",
          "type": "uint256"
        },
        {
          "internalType": "string",
          "name": "name",
          "type": "string"
        },
        {
          "internalType": "string",
          "name": "description",
          "type": "string"
        },
        {
          "internalType": "address",
          "name": "ngoAddress",
          "type": "address"
        },
        {
          "internalType": "uint256",
          "name": "targetAmount",
          "type": "uint256"
        },
        {
          "internalType": "uint256",
          "name": "raisedAmount",
          "type": "uint256"
        },
        {
          "internalType": "uint256",
          "name": "disbursedAmount",
          "type": "uint256"
        },
        {
          "internalType": "uint256",
          "name": "startTime",
          "type": "uint256"
        },
        {
          "internalType": "uint256",
          "name": "endTime",
          "type": "uint256"
        },
        {
          "internalType": "bool",
          "name": "isVerified",
          "type": "bool"
        },
        {
          "internalType": "bool",
          "name": "isActive",
          "type": "bool"
        },
        {
          "internalType": "string",
          "name": "ipfsMetadata",
          "type": "string"
        }
      ],
      "stateMutability": "view",
      "type": "function"
    },
    {
      "inputs": [
        {
          "internalType": "string",
          "name": "_name",
          "type": "string"
        },
        {
          "internalType": "string",
          "name": "_description",
          "type": "string"
        },
        {
          "internalType": "uint256",
          "name": "_targetAmount",
          "type": "uint256"
        },
        {
          "internalType": "uint256",
          "name": "_duration",
          "type": "uint256"
        },
        {
          "internalType": "string",
          "name": "_ipfsMetadata",
          "type": "string"
        },
        {
          "internalType": "uint256[]",
          "name": "_milestones",
          "type": "uint256[]"
        }
      ],
      "name": "createCampaign",
      "outputs": [],
      "stateMutability": "nonpayable",
      "type": "function"
    },
    {
      "inputs": [
        {
          "internalType": "uint256",
          "name": "_campaignId",
          "type": "uint256"
        },
        {
          "internalType": "uint256",
          "name": "_amount",
          "type": "uint256"
        },
        {
          "internalType": "address",
          "name": "_recipient",
          "type": "address"
        },
        {
          "internalType": "string",
          "name": "_purpose",
          "type": "string"
        },
        {
          "internalType": "string",
          "name": "_proofOfUse",
          "type": "string"
        }
      ],
      "name": "disburseFunds",
      "outputs": [],
      "stateMutability": "nonpayable",
      "type": "function"
    },
    {
      "inputs": [],
      "name": "disbursementCounter",
      "outputs": [
        {
          "internalType": "uint256",
          "name": "",
          "type": "uint256"
        }
      ],
      "stateMutability": "view",
      "type": "function"
    },
    {
      "inputs": [
        {
          "internalType": "uint256",
          "name": "",
          "type": "uint256"
        }
      ],
      "name": "disbursements",
      "outputs": [
        {
          "internalType": "uint256",
          "name": "campaignId",
          "type": "uint256"
        },
        {
          "internalType": "uint256",
          "name": "amount",
          "type": "uint256"
        },
        {
          "internalType": "address",
          "name": "recipient",
          "type": "address"
        },
        {
          "internalType": "string",
          "name": "purpose",
          "type": "string"
        },
        {
          "internalType": "string",
          "name": "proofOfUse",
          "type": "string"
        },
        {
          "internalType": "uint256",
          "name": "timestamp",
          "type": "uint256"
        },
        {
          "internalType": "bool",
          "name": "isVerified",
          "type": "bool"
        }
      ],
      "stateMutability": "view",
      "type": "function"
    },
    {
      "inputs": [
        {
          "internalType": "uint256",
          "name": "_campaignId",
          "type": "uint256"
        },
        {
          "internalType": "string",
          "name": "_message",
          "type": "string"
        }
      ],
      "name": "donate",
      "outputs": [],
      "stateMutability": "payable",
      "type": "function"
    },
    {
      "inputs": [],
      "name": "donationCounter",
      "outputs": [
        {
          "internalType": "uint256",
          "name": "",
          "type": "uint256"
        }
      ],
      "stateMutability": "view",
      "type": "function"
    },
    {
      "inputs": [
        {
          "internalType": "uint256",
          "name": "",
          "type": "uint256"
        }
      ],
      "name": "donations",
      "outputs": [
        {
          "internalType": "address",
          "name": "donor",
          "type": "address"
        },
        {
          "internalType": "uint256",
          "name": "campaignId",
          "type": "uint256"
        },
        {
          "internalType": "uint256",
          "name": "amount",
          "type": "uint256"
        },
        {
          "internalType": "uint256",
          "name": "timestamp",
          "type": "uint256"
        },
        {
          "internalType": "string",
          "name": "message",
          "type": "string"
        }
      ],
      "stateMutability": "view",
      "type": "function"
    },
    {
      "inputs": [
        {
          "internalType": "address",
          "name": "",
          "type": "address"
        },
        {
          "internalType": "uint256",
          "name": "",
          "type": "uint256"
        }
      ],
      "name": "donorReceipts",
      "outputs": [
        {
          "internalType": "uint256",
          "name": "donationId",
          "type": "uint256"
        },
        {
          "internalType": "uint256",
          "name": "campaignId",
          "type": "uint256"
        },
        {
          "internalType": "uint256",
          "name": "amount",
          "type": "uint256"
        },
        {
          "internalType": "uint256",
          "name": "timestamp",
          "type": "uint256"
        },
        {
          "internalType": "bytes32",
          "name": "receiptHash",
          "type": "bytes32"
        }
      ],
      "stateMutability": "view",
      "type": "function"
    },
    {
      "inputs": [
        {
          "internalType": "address",
          "name": "",
          "type": "address"
        },
        {
          "internalType": "uint256",
          "name": "",
          "type": "uint256"
        }
      ],
      "name": "donorToCampaigns",
      "outputs": [
        {
          "internalType": "uint256",
          "name": "",
          "type": "uint256"
        }
      ],
      "stateMutability": "view",
      "type": "function"
    },
    {
      "inputs": [
        {
          "internalType": "uint256",
          "name": "_campaignId",
          "type": "uint256"
        }
      ],
      "name": "getCampaignDisbursements",
      "outputs": [
        {
          "internalType": "uint256[]",
          "name": "",
          "type": "uint256[]"
        }
      ],
      "stateMutability": "view",
      "type": "function"
    },
    {
      "inputs": [
        {
          "internalType": "address",
          "name": "_donor",
          "type": "address"
        }
      ],
      "name": "getDonorCampaigns",
      "outputs": [
        {
          "internalType": "uint256[]",
          "name": "",
          "type": "uint256[]"
        }
      ],
      "stateMutability": "view",
      "type": "function"
    },
    {
      "inputs": [
        {
          "internalType": "address",
          "name": "_donor",
          "type": "address"
        }
      ],
      "name": "getDonorReceipts",
      "outputs": [
        {
          "components": [
            {
              "internalType": "uint256",
              "name": "donationId",
              "type": "uint256"
            },
            {
              "internalType": "uint256",
              "name": "campaignId",
              "type": "uint256"
            },
            {
              "internalType": "uint256",
              "name": "amount",
              "type": "uint256"
            },
            {
              "internalType": "uint256",
              "name": "timestamp",
              "type": "uint256"
            },
            {
              "internalType": "bytes32",
              "name": "receiptHash",
              "type": "bytes32"
            }
          ],
          "internalType": "struct ReliefDonation.DonorReceipt[]",
          "name": "",
          "type": "tuple[]"
        }
      ],
      "stateMutability": "view",
      "type": "function"
    },
    {
      "inputs": [
        {
          "internalType": "bytes32",
          "name": "role",
          "type": "bytes32"
        }
      ],
      "name": "getRoleAdmin",
      "outputs": [
        {
          "internalType": "bytes32",
          "name": "",
          "type": "bytes32"
        }
      ],
      "stateMutability": "view",
      "type": "function"
    },
    {
      "inputs": [
        {
          "internalType": "bytes32",
          "name": "role",
          "type": "bytes32"
        },
        {
          "internalType": "address",
          "name": "account",
          "type": "address"
        }
      ],
      "name": "grantRole",
      "outputs": [],
      "stateMutability": "nonpayable",
      "type": "function"
    },
    {
      "inputs": [
        {
          "internalType": "bytes32",
          "name": "role",
          "type": "bytes32"
        },
        {
          "internalType": "address",
          "name": "account",
          "type": "address"
        }
      ],
      "name": "hasRole",
      "outputs": [
        {
          "internalType": "bool",
          "name": "",
          "type": "bool"
        }
      ],
      "stateMutability": "view",
      "type": "function"
    },
    {
      "inputs": [],
      "name": "pause",
      "outputs": [],
      "stateMutability": "nonpayable",
      "type": "function"
    },
    {
      "inputs": [],
      "name": "paused",
      "outputs": [
        {
          "internalType": "bool",
          "name": "",
          "type": "bool"
        }
      ],
      "stateMutability": "view",
      "type": "function"
    },
    {
      "inputs": [
        {
          "internalType": "address",
          "name": "_ngo",
          "type": "address"
        }
      ],
      "name": "registerNGO",
      "outputs": [],
      "stateMutability": "nonpayable",
      "type": "function"
    },
    {
      "inputs": [
        {
          "internalType": "address",
          "name": "_verifier",
          "type": "address"
        }
      ],
      "name": "registerVerifier",
      "outputs": [],
      "stateMutability": "nonpayable",
      "type": "function"
    },
    {
      "inputs": [
        {
          "internalType": "bytes32",
          "name": "role",
          "type": "bytes32"
        },
        {
          "internalType": "address",
          "name": "account",
          "type": "address"
        }
      ],
      "name": "renounceRole",
      "outputs": [],
      "stateMutability": "nonpayable",
      "type": "function"
    },
    {
      "inputs": [
        {
          "internalType": "bytes32",
          "name": "role",
          "type": "bytes32"
        },
        {
          "internalType": "address",
          "name": "account",
          "type": "address"
        }
      ],
      "name": "revokeRole",
      "outputs": [],
      "stateMutability": "nonpayable",
      "type": "function"
    },
    {
      "inputs": [
        {
          "internalType": "bytes4",
          "name": "interfaceId",
          "type": "bytes4"
        }
      ],
      "name": "supportsInterface",
      "outputs": [
        {
          "internalType": "bool",
          "name": "",
          "type": "bool"
        }
      ],
      "stateMutability": "view",
      "type": "function"
    },
    {
      "inputs": [],
      "name": "unpause",
      "outputs": [],
      "stateMutability": "nonpayable",
      "type": "function"
    },
    {
      "inputs": [
        {
          "internalType": "uint256",
          "name": "_id",
          "type": "uint256"
        },
        {
          "internalType": "string",
          "name": "_name",
          "type": "string"
        },
        {
          "internalType": "string",
          "name": "_description",
          "type": "string"
        },
        {
          "internalType": "uint256",
          "name": "_targetAmount",
          "type": "uint256"
        },
        {
          "internalType": "uint256",
          "name": "_duration",
          "type": "uint256"
        },
        {
          "internalType": "string",
          "name": "_ipfsMetadata",
          "type": "string"
        },
        {
          "internalType": "uint256[]",
          "name": "_milestones",
          "type": "uint256[]"
        }
      ],
      "name": "updateCampaign",
      "outputs": [],
      "stateMutability": "nonpayable",
      "type": "function"
    },
    {
      "inputs": [
        {
          "internalType": "uint256",
          "name": "_campaignId",
          "type": "uint256"
        }
      ],
      "name": "verifyCampaign",
      "outputs": [],
      "stateMutability": "nonpayable",
      "type": "function"
    },
    {
      "inputs": [
        {
          "internalType": "uint256",
          "name": "_disbursementId",
          "type": "uint256"
        }
      ],
      "name": "verifyDisbursement",
      "outputs": [],
      "stateMutability": "nonpayable",
      "type": "function"
    },
    {
      "inputs": [
        {
          "internalType": "address",
          "name": "_donor",
          "type": "address"
        },
        {
          "internalType": "uint256",
          "name": "_donationId",
          "type": "uint256"
        },
        {
          "internalType": "bytes32",
          "name": "_receiptHash",
          "type": "bytes32"
        }
      ],
      "name": "verifyReceipt",
      "outputs": [
        {
          "internalType": "bool",
          "name": "",
          "type": "bool"
        }
      ],
      "stateMutability": "view",
      "type": "function"
    }
  ],
  "bytecode": "0x608060405234801561001057600080fd5b50600180819055506000600260006101000a81548160ff0219169083151502179055506100466000801b3361007b60201b60201c565b6100767fa49807205ce4d355092ef5a8a18f56e8913cf4a201fbe287825b095693c217753361007b60201b60201c565b6101d9565b61008b828261016760201b60201c565b61016357600160008084815260200190815260200160002060000160008373ffffffffffffffffffffffffffffffffffffffff1673ffffffffffffffffffffffffffffffffffffffff16815260200190815260200160002060006101000a81548160ff0219169083151502179055506101086101d160201b60201c565b73ffffffffffffffffffffffffffffffffffffffff168173ffffffffffffffffffffffffffffffffffffffff16837f2f8788117e7eff1d82e926ec794901d17c78024a50270940304540a733656f0d60405160405180910390a45b5050565b600080600084815260200190815260200160002060000160008373ffffffffffffffffffffffffffffffffffffffff1673ffffffffffffffffffffffffffffffffffffffff16815260200190815260200160002060009054906101000a900460ff16905092915050565b600033905090565b614812806101e86000396000f3fe60806040526004361061020f5760003560e01c80638d59d1f111610118578063d9594e2b116100a0578063e7705db61161006f578063e7705db614610811578063f10a6dfc1461083c578063f52cb29b14610867578063f8626af814610890578063fca604d7146108d15761020f565b8063d9594e2b14610731578063da16c4531461076e578063dcfd8cd4146107ab578063e4b2de5c146107d45761020f565b8063aa2c4b6b116100e7578063aa2c4b6b14610664578063b3759b041461068d578063ba581e53146106b6578063c639e8c5146106df578063d547741f146107085761020f565b80638d59d1f11461059f57806391d14854146105bb5780639a4152ab146105f8578063a217fddf146106395761020f565b80633f4ba83a1161019b5780635054ffa41161016a5780635054ffa4146104b85780635c975abb146104f5578063750954261461052057806375b238fc1461055d5780638456cb59146105885761020f565b80633f4ba83a1461040a5780634040e2ad1461042157806341285d481461044c5780634e29cba6146104755761020f565b80632e4e7dd9116101e25780632e4e7dd9146103135780632f2ff15d146103505780633178492a1461037957806336568abe146103b657806338d187dd146103df5761020f565b806301ffc9a714610214578063141961bc146102515780632481e6d014610299578063248a9ca3146102d6575b600080fd5b34801561022057600080fd5b5061023b60048036038101906102369190612c89565b6108fc565b6040516102489190612cd1565b60405180910390f35b34801561025d57600080fd5b5061027860048036038101906102739190612d22565b610976565b6040516102909c9b9a99989796959493929190612e2f565b60405180910390f35b3480156102a557600080fd5b506102c060048036038101906102bb9190612d22565b610ba8565b6040516102cd9190612fbc565b60405180910390f35b3480156102e257600080fd5b506102fd60048036038101906102f89190613014565b610c13565b60405161030a9190613050565b60405180910390f35b34801561031f57600080fd5b5061033a60048036038101906103359190613097565b610c32565b6040516103479190612fbc565b60405180910390f35b34801561035c57600080fd5b50610377600480360381019061037291906130c4565b610cc9565b005b34801561038557600080fd5b506103a0600480360381019061039b9190613104565b610cea565b6040516103ad9190613144565b60405180910390f35b3480156103c257600080fd5b506103dd60048036038101906103d891906130c4565b610d1b565b005b3480156103eb57600080fd5b506103f4610d9e565b6040516104019190613144565b60405180910390f35b34801561041657600080fd5b5061041f610da4565b005b34801561042d57600080fd5b50610436610dd9565b6040516104439190613144565b60405180910390f35b34801561045857600080fd5b50610473600480360381019061046e9190613294565b610ddf565b005b34801561048157600080fd5b5061049c60048036038101906104979190612d22565b611272565b6040516104af9796959493929190613347565b60405180910390f35b3480156104c457600080fd5b506104df60048036038101906104da91906133c4565b6113f1565b6040516104ec9190612cd1565b60405180910390f35b34801561050157600080fd5b5061050a61153e565b6040516105179190612cd1565b60405180910390f35b34801561052c57600080fd5b5061054760048036038101906105429190613104565b611555565b6040516105549190613144565b60405180910390f35b34801561056957600080fd5b50610572611586565b60405161057f9190613050565b60405180910390f35b34801561059457600080fd5b5061059d6115aa565b005b6105b960048036038101906105b49190613417565b6115df565b005b3480156105c757600080fd5b506105e260048036038101906105dd91906130c4565b611a4b565b6040516105ef9190612cd1565b60405180910390f35b34801561060457600080fd5b5061061f600480360381019061061a9190613473565b611ab5565b6040516106309594939291906134b3565b60405180910390f35b34801561064557600080fd5b5061064e611b08565b60405161065b9190613050565b60405180910390f35b34801561067057600080fd5b5061068b600480360381019061068691906135ce565b611b0f565b005b34801561069957600080fd5b506106b460048036038101906106af91906136cb565b611cc1565b005b3480156106c257600080fd5b506106dd60048036038101906106d89190613097565b611f0c565b005b3480156106eb57600080fd5b5061070660048036038101906107019190613097565b611f64565b005b34801561071457600080fd5b5061072f600480360381019061072a91906130c4565b611fbc565b005b34801561073d57600080fd5b5061075860048036038101906107539190612d22565b611fdd565b6040516107659190613144565b60405180910390f35b34801561077a57600080fd5b5061079560048036038101906107909190613097565b611ff5565b6040516107a29190613903565b60405180910390f35b3480156107b757600080fd5b506107d260048036038101906107cd9190612d22565b6120c5565b005b3480156107e057600080fd5b506107fb60048036038101906107f69190613473565b612276565b6040516108089190613144565b60405180910390f35b34801561081d57600080fd5b506108266122a7565b6040516108339190613050565b60405180910390f35b34801561084857600080fd5b506108516122cb565b60405161085e9190613050565b60405180910390f35b34801561087357600080fd5b5061088e60048036038101906108899190612d22565b6122ef565b005b34801561089c57600080fd5b506108b760048036038101906108b29190612d22565b6123e9565b6040516108c8959493929190613925565b60405180910390f35b3480156108dd57600080fd5b506108e66124c7565b6040516108f39190613144565b60405180910390f35b60007f7965db0b000000000000000000000000000000000000000000000000000000007bffffffffffffffffffffffffffffffffffffffffffffffffffffffff1916827bffffffffffffffffffffffffffffffffffffffffffffffffffffffff1916148061096f575061096e826124cd565b5b9050919050565b600660205280600052604060002060009150905080600001549080600101805461099f906139ae565b80601f01602080910402602001604051908101604052809291908181526020018280546109cb906139ae565b8015610a185780601f106109ed57610100808354040283529160200191610a18565b820191906000526020600020905b8154815290600101906020018083116109fb57829003601f168201915b505050505090806002018054610a2d906139ae565b80601f0160208091040260200160405190810160405280929190818152602001828054610a59906139ae565b8015610aa65780601f10610a7b57610100808354040283529160200191610aa6565b820191906000526020600020905b815481529060010190602001808311610a8957829003601f168201915b5050505050908060030160009054906101000a900473ffffffffffffffffffffffffffffffffffffffff16908060040154908060050154908060060154908060070154908060080154908060090160009054906101000a900460ff16908060090160019054906101000a900460ff169080600a018054610b25906139ae565b80601f0160208091040260200160405190810160405280929190818152602001828054610b51906139ae565b8015610b9e5780601f10610b7357610100808354040283529160200191610b9e565b820191906000526020600020905b815481529060010190602001808311610b8157829003601f168201915b505050505090508c565b6060600b6000838152602001908152602001600020805480602002602001604051908101604052809291908181526020018280548015610c0757602002820191906000526020600020905b815481526020019060010190808311610bf3575b50505050509050919050565b6000806000838152602001908152602001600020600101549050919050565b6060600960008373ffffffffffffffffffffffffffffffffffffffff1673ffffffffffffffffffffffffffffffffffffffff168152602001908152602001600020805480602002602001604051908101604052809291908181526020018280548015610cbd57602002820191906000526020600020905b815481526020019060010190808311610ca9575b50505050509050919050565b610cd282610c13565b610cdb81612537565b610ce5838361254b565b505050565b600c6020528160005260406000208181548110610d0657600080fd5b90600052602060002001600091509150505481565b610d2361262b565b73ffffffffffffffffffffffffffffffffffffffff168173ffffffffffffffffffffffffffffffffffffffff1614610d90576040517f08c379a0000000000000000000000000000000000000000000000000000000008152600401610d8790613a51565b60405180910390fd5b610d9a8282612633565b5050565b60045481565b7fa49807205ce4d355092ef5a8a18f56e8913cf4a201fbe287825b095693c21775610dce81612537565b610dd6612714565b50565b60055481565b7f7409dd26ef14054436243be79996fa1ab352eb1e8f34bcf72012e7de1d1176f0610e0981612537565b610e11612777565b60006006600088815260200190815260200160002090503373ffffffffffffffffffffffffffffffffffffffff168160030160009054906101000a900473ffffffffffffffffffffffffffffffffffffffff1673ffffffffffffffffffffffffffffffffffffffff1614610eba576040517f08c379a0000000000000000000000000000000000000000000000000000000008152600401610eb190613abd565b60405180910390fd5b8581600601548260050154610ecf9190613b0c565b1015610f10576040517f08c379a0000000000000000000000000000000000000000000000000000000008152600401610f0790613b8c565b60405180910390fd5b6000600c6000898152602001908152602001600020805480602002602001604051908101604052809291908181526020018280548015610f6f57602002820191906000526020600020905b815481526020019060010190808311610f5b575b5050505050905060008151111561106a576000600d60008a815260200190815260200160002054905081518110610fdb576040517f08c379a0000000000000000000000000000000000000000000000000000000008152600401610fd290613bf8565b60405180910390fd5b60006064838381518110610ff257610ff1613c18565b5b602002602001015185600501546110099190613c47565b6110139190613cb8565b9050808985600601546110269190613ce9565b1115611067576040517f08c379a000000000000000000000000000000000000000000000000000000000815260040161105e90613d69565b60405180910390fd5b50505b6005600081548092919061107d90613d89565b919050555060006008600060055481526020019081526020016000209050888160000181905550878160010181905550868160020160006101000a81548173ffffffffffffffffffffffffffffffffffffffff021916908373ffffffffffffffffffffffffffffffffffffffff160217905550858160030190816111019190613f7d565b50848160040190816111139190613f7d565b50428160050181905550878360060160008282546111319190613ce9565b92505081905550600b60008a8152602001908152602001600020600554908060018154018082558091505060019003906000526020600020016000909190919091505560008773ffffffffffffffffffffffffffffffffffffffff168960405161119a90614080565b60006040518083038185875af1925050503d80600081146111d7576040519150601f19603f3d011682016040523d82523d6000602084013e6111dc565b606091505b5050905080611220576040517f08c379a0000000000000000000000000000000000000000000000000000000008152600401611217906140e1565b60405180910390fd5b6005547f86ecbd77453596d93bd5d23a12fb3c06f86e383e88842d04c5fdd849725294958b8b8a60405161125693929190614101565b60405180910390a25050505061126a6127c6565b505050505050565b60086020528060005260406000206000915090508060000154908060010154908060020160009054906101000a900473ffffffffffffffffffffffffffffffffffffffff16908060030180546112c7906139ae565b80601f01602080910402602001604051908101604052809291908181526020018280546112f3906139ae565b80156113405780601f1061131557610100808354040283529160200191611340565b820191906000526020600020905b81548152906001019060200180831161132357829003601f168201915b505050505090806004018054611355906139ae565b80601f0160208091040260200160405190810160405280929190818152602001828054611381906139ae565b80156113ce5780601f106113a3576101008083540402835291602001916113ce565b820191906000526020600020905b8154815290600101906020018083116113b157829003601f168201915b5050505050908060050154908060060160009054906101000a900460ff16905087565b600080600a60008673ffffffffffffffffffffffffffffffffffffffff1673ffffffffffffffffffffffffffffffffffffffff168152602001908152602001600020805480602002602001604051908101604052809291908181526020016000905b828210156114b757838290600052602060002090600502016040518060a00160405290816000820154815260200160018201548152602001600282015481526020016003820154815260200160048201548152505081526020019060010190611453565b50505050905060005b815181101561153057848282815181106114dd576114dc613c18565b5b60200260200101516000015114801561151357508382828151811061150557611504613c18565b5b602002602001015160800151145b1561152357600192505050611537565b80806001019150506114c0565b5060009150505b9392505050565b6000600260009054906101000a900460ff16905090565b600b602052816000526040600020818154811061157157600080fd5b90600052602060002001600091509150505481565b7fa49807205ce4d355092ef5a8a18f56e8913cf4a201fbe287825b095693c2177581565b7fa49807205ce4d355092ef5a8a18f56e8913cf4a201fbe287825b095693c217756115d481612537565b6115dc6127cf565b50565b6115e7612777565b6115ef612832565b6000600660008481526020019081526020016000209050600081600001540361164d576040517f08c379a00000000000000000000000000000000000000000000000000000000081526004016116449061418b565b60405180910390fd5b8060090160019054906101000a900460ff1661169e576040517f08c379a0000000000000000000000000000000000000000000000000000000008152600401611695906141f7565b60405180910390fd5b8060090160009054906101000a900460ff166116ef576040517f08c379a00000000000000000000000000000000000000000000000000000000081526004016116e690614263565b60405180910390fd5b8060080154421115611736576040517f08c379a000000000000000000000000000000000000000000000000000000000815260040161172d906142cf565b60405180910390fd5b60003411611779576040517f08c379a00000000000000000000000000000000000000000000000000000000081526004016117709061433b565b60405180910390fd5b6004600081548092919061178c90613d89565b919050555060006007600060045481526020019081526020016000209050338160000160006101000a81548173ffffffffffffffffffffffffffffffffffffffff021916908373ffffffffffffffffffffffffffffffffffffffff160217905550838160010181905550348160020181905550428160030181905550828160040190816118199190613f7d565b503482600501600082825461182e9190613ce9565b92505081905550600960003373ffffffffffffffffffffffffffffffffffffffff1673ffffffffffffffffffffffffffffffffffffffff1681526020019081526020016000208490806001815401808255809150506001900390600052602060002001600090919091909150556000338534426004546040516020016118b89594939291906143c4565b60405160208183030381529060405280519060200120905060006040518060a001604052806004548152602001878152602001348152602001428152602001838152509050600a60003373ffffffffffffffffffffffffffffffffffffffff1673ffffffffffffffffffffffffffffffffffffffff168152602001908152602001600020819080600181540180825580915050600190039060005260206000209060050201600090919091909150600082015181600001556020820151816001015560408201518160020155606082015181600301556080820151816004015550503373ffffffffffffffffffffffffffffffffffffffff16867f0b5b4c52969ff7329ecf7ee536409fda87812b15a8622bc6e8cdeab3aee14a26346040516119e19190613144565b60405180910390a33373ffffffffffffffffffffffffffffffffffffffff167faa61d5b574a283af11db9b1d18e0724a2121956fec97ff1c8a86f1578dcb55e760045484604051611a33929190614423565b60405180910390a250505050611a476127c6565b5050565b600080600084815260200190815260200160002060000160008373ffffffffffffffffffffffffffffffffffffffff1673ffffffffffffffffffffffffffffffffffffffff16815260200190815260200160002060009054906101000a900460ff16905092915050565b600a6020528160005260406000208181548110611ad157600080fd5b9060005260206000209060050201600091509150508060000154908060010154908060020154908060030154908060040154905085565b6000801b81565b7f7409dd26ef14054436243be79996fa1ab352eb1e8f34bcf72012e7de1d1176f0611b3981612537565b60036000815480929190611b4c90613d89565b919050555060006006600060035481526020019081526020016000209050600354816000018190555087816001019081611b869190613f7d565b5086816002019081611b989190613f7d565b50338160030160006101000a81548173ffffffffffffffffffffffffffffffffffffffff021916908373ffffffffffffffffffffffffffffffffffffffff1602179055508581600401819055504281600701819055508442611bfa9190613ce9565b816008018190555060018160090160016101000a81548160ff0219169083151502179055508381600a019081611c309190613f7d565b50600083511115611c665782600c600060035481526020019081526020016000209080519060200190611c64929190612bb3565b505b3373ffffffffffffffffffffffffffffffffffffffff166003547f2750eae5c1c1d8000d7e674f15576524a1b7e24f4a33052e9d80ce3889556e398a604051611caf919061444c565b60405180910390a35050505050505050565b7f7409dd26ef14054436243be79996fa1ab352eb1e8f34bcf72012e7de1d1176f0611ceb81612537565b6000600660008a815260200190815260200160002090506000816000015403611d49576040517f08c379a0000000000000000000000000000000000000000000000000000000008152600401611d409061418b565b60405180910390fd5b8060090160019054906101000a900460ff16611d9a576040517f08c379a0000000000000000000000000000000000000000000000000000000008152600401611d91906141f7565b60405180910390fd5b3373ffffffffffffffffffffffffffffffffffffffff168160030160009054906101000a900473ffffffffffffffffffffffffffffffffffffffff1673ffffffffffffffffffffffffffffffffffffffff1614611e2c576040517f08c379a0000000000000000000000000000000000000000000000000000000008152600401611e2390613abd565b60405180910390fd5b87816001019081611e3d9190613f7d565b5086816002019081611e4f9190613f7d565b508581600401819055508442611e659190613ce9565b81600801819055508381600a019081611e7e9190613f7d565b50600083511115611eb25782600c60008b81526020019081526020016000209080519060200190611eb0929190612bb3565b505b3373ffffffffffffffffffffffffffffffffffffffff16897f18473665c8be05a94a7d6f15d87daedca3599a0d86c8a80c8a560f1f602438b88a604051611ef9919061444c565b60405180910390a3505050505050505050565b7fa49807205ce4d355092ef5a8a18f56e8913cf4a201fbe287825b095693c21775611f3681612537565b611f607f7409dd26ef14054436243be79996fa1ab352eb1e8f34bcf72012e7de1d1176f083610cc9565b5050565b7fa49807205ce4d355092ef5a8a18f56e8913cf4a201fbe287825b095693c21775611f8e81612537565b611fb87f0ce23c3e399818cfee81a7ab0880f714e53d7672b08df0fa62f2843416e1ea0983610cc9565b5050565b611fc582610c13565b611fce81612537565b611fd88383612633565b505050565b600d6020528060005260406000206000915090505481565b6060600a60008373ffffffffffffffffffffffffffffffffffffffff1673ffffffffffffffffffffffffffffffffffffffff168152602001908152602001600020805480602002602001604051908101604052809291908181526020016000905b828210156120ba57838290600052602060002090600502016040518060a00160405290816000820154815260200160018201548152602001600282015481526020016003820154815260200160048201548152505081526020019060010190612056565b505050509050919050565b7f0ce23c3e399818cfee81a7ab0880f714e53d7672b08df0fa62f2843416e1ea096120ef81612537565b6000600860008481526020019081526020016000206000015403612148576040517f08c379a000000000000000000000000000000000000000000000000000000000815260040161213f906144ba565b60405180910390fd5b60016008600084815260200190815260200160002060060160006101000a81548160ff0219169083151502179055506000600860008481526020019081526020016000206000015490506000600c60008381526020019081526020016000208054806020026020016040519081016040528092919081815260200182805480156121f157602002820191906000526020600020905b8154815260200190600101908083116121dd575b5050505050905060008151111561222c57600d6000838152602001908152602001600020600081548092919061222690613d89565b91905055505b3373ffffffffffffffffffffffffffffffffffffffff16847f247ef05b027b05f5ac8a15d896f18f21d4b78d3fd6aae24ae954c1b528f4f9e960405160405180910390a350505050565b6009602052816000526040600020818154811061229257600080fd5b90600052602060002001600091509150505481565b7f0ce23c3e399818cfee81a7ab0880f714e53d7672b08df0fa62f2843416e1ea0981565b7f7409dd26ef14054436243be79996fa1ab352eb1e8f34bcf72012e7de1d1176f081565b7f0ce23c3e399818cfee81a7ab0880f714e53d7672b08df0fa62f2843416e1ea0961231981612537565b6000600660008481526020019081526020016000206000015403612372576040517f08c379a00000000000000000000000000000000000000000000000000000000081526004016123699061418b565b60405180910390fd5b60016006600084815260200190815260200160002060090160006101000a81548160ff0219169083151502179055503373ffffffffffffffffffffffffffffffffffffffff16827fcd3ac142ca63f77a9b68e9d6ca66363c24d59be6fade6c25b9ef29c1cd0a82dd60405160405180910390a35050565b60076020528060005260406000206000915090508060000160009054906101000a900473ffffffffffffffffffffffffffffffffffffffff1690806001015490806002015490806003015490806004018054612444906139ae565b80601f0160208091040260200160405190810160405280929190818152602001828054612470906139ae565b80156124bd5780601f10612492576101008083540402835291602001916124bd565b820191906000526020600020905b8154815290600101906020018083116124a057829003601f168201915b5050505050905085565b60035481565b60007f01ffc9a7000000000000000000000000000000000000000000000000000000007bffffffffffffffffffffffffffffffffffffffffffffffffffffffff1916827bffffffffffffffffffffffffffffffffffffffffffffffffffffffff1916149050919050565b6125488161254361262b565b61287c565b50565b6125558282611a4b565b61262757600160008084815260200190815260200160002060000160008373ffffffffffffffffffffffffffffffffffffffff1673ffffffffffffffffffffffffffffffffffffffff16815260200190815260200160002060006101000a81548160ff0219169083151502179055506125cc61262b565b73ffffffffffffffffffffffffffffffffffffffff168173ffffffffffffffffffffffffffffffffffffffff16837f2f8788117e7eff1d82e926ec794901d17c78024a50270940304540a733656f0d60405160405180910390a45b5050565b600033905090565b61263d8282611a4b565b1561271057600080600084815260200190815260200160002060000160008373ffffffffffffffffffffffffffffffffffffffff1673ffffffffffffffffffffffffffffffffffffffff16815260200190815260200160002060006101000a81548160ff0219169083151502179055506126b561262b565b73ffffffffffffffffffffffffffffffffffffffff168173ffffffffffffffffffffffffffffffffffffffff16837ff6391f5c32d9c69d2a47ea670b442974b53935d1edc7fd64eb21e047a839171b60405160405180910390a45b5050565b61271c612901565b6000600260006101000a81548160ff0219169083151502179055507f5db9ee0a495bf2e6ff9c91a7834c1ba4fdd244a5e8aa4e537bd38aeae4b073aa61276061262b565b60405161276d91906144da565b60405180910390a1565b6002600154036127bc576040517f08c379a00000000000000000000000000000000000000000000000000000000081526004016127b390614541565b60405180910390fd5b6002600181905550565b60018081905550565b6127d7612832565b6001600260006101000a81548160ff0219169083151502179055507f62e78cea01bee320cd4e420270b5ea74000d11b0c9f74754ebdbfc544b05a25861281b61262b565b60405161282891906144da565b60405180910390a1565b61283a61153e565b1561287a576040517f08c379a0000000000000000000000000000000000000000000000000000000008152600401612871906145ad565b60405180910390fd5b565b6128868282611a4b565b6128fd576128938161294a565b6128a18360001c6020612977565b6040516020016128b29291906146a1565b6040516020818303038152906040526040517f08c379a00000000000000000000000000000000000000000000000000000000081526004016128f4919061444c565b60405180910390fd5b5050565b61290961153e565b612948576040517f08c379a000000000000000000000000000000000000000000000000000000000815260040161293f90614727565b60405180910390fd5b565b60606129708273ffffffffffffffffffffffffffffffffffffffff16601460ff16612977565b9050919050565b60606000600283600261298a9190613c47565b6129949190613ce9565b67ffffffffffffffff8111156129ad576129ac613169565b5b6040519080825280601f01601f1916602001820160405280156129df5781602001600182028036833780820191505090505b5090507f300000000000000000000000000000000000000000000000000000000000000081600081518110612a1757612a16613c18565b5b60200101907effffffffffffffffffffffffffffffffffffffffffffffffffffffffffffff1916908160001a9053507f780000000000000000000000000000000000000000000000000000000000000081600181518110612a7b57612a7a613c18565b5b60200101907effffffffffffffffffffffffffffffffffffffffffffffffffffffffffffff1916908160001a90535060006001846002612abb9190613c47565b612ac59190613ce9565b90505b6001811115612b65577f3031323334353637383961626364656600000000000000000000000000000000600f861660108110612b0757612b06613c18565b5b1a60f81b828281518110612b1e57612b1d613c18565b5b60200101907effffffffffffffffffffffffffffffffffffffffffffffffffffffffffffff1916908160001a905350600485901c945080612b5e90614747565b9050612ac8565b5060008414612ba9576040517f08c379a0000000000000000000000000000000000000000000000000000000008152600401612ba0906147bc565b60405180910390fd5b8091505092915050565b828054828255906000526020600020908101928215612bef579160200282015b82811115612bee578251825591602001919060010190612bd3565b5b509050612bfc9190612c00565b5090565b5b80821115612c19576000816000905550600101612c01565b5090565b6000604051905090565b600080fd5b600080fd5b60007fffffffff0000000000000000000000000000000000000000000000000000000082169050919050565b612c6681612c31565b8114612c7157600080fd5b50565b600081359050612c8381612c5d565b92915050565b600060208284031215612c9f57612c9e612c27565b5b6000612cad84828501612c74565b91505092915050565b60008115159050919050565b612ccb81612cb6565b82525050565b6000602082019050612ce66000830184612cc2565b92915050565b6000819050919050565b612cff81612cec565b8114612d0a57600080fd5b50565b600081359050612d1c81612cf6565b92915050565b600060208284031215612d3857612d37612c27565b5b6000612d4684828501612d0d565b91505092915050565b612d5881612cec565b82525050565b600081519050919050565b600082825260208201905092915050565b60005b83811015612d98578082015181840152602081019050612d7d565b60008484015250505050565b6000601f19601f8301169050919050565b6000612dc082612d5e565b612dca8185612d69565b9350612dda818560208601612d7a565b612de381612da4565b840191505092915050565b600073ffffffffffffffffffffffffffffffffffffffff82169050919050565b6000612e1982612dee565b9050919050565b612e2981612e0e565b82525050565b600061018082019050612e45600083018f612d4f565b8181036020830152612e57818e612db5565b90508181036040830152612e6b818d612db5565b9050612e7a606083018c612e20565b612e87608083018b612d4f565b612e9460a083018a612d4f565b612ea160c0830189612d4f565b612eae60e0830188612d4f565b612ebc610100830187612d4f565b612eca610120830186612cc2565b612ed8610140830185612cc2565b818103610160830152612eeb8184612db5565b90509d9c50505050505050505050505050565b600081519050919050565b600082825260208201905092915050565b6000819050602082019050919050565b612f3381612cec565b82525050565b6000612f458383612f2a565b60208301905092915050565b6000602082019050919050565b6000612f6982612efe565b612f738185612f09565b9350612f7e83612f1a565b8060005b83811015612faf578151612f968882612f39565b9750612fa183612f51565b925050600181019050612f82565b5085935050505092915050565b60006020820190508181036000830152612fd68184612f5e565b905092915050565b6000819050919050565b612ff181612fde565b8114612ffc57600080fd5b50565b60008135905061300e81612fe8565b92915050565b60006020828403121561302a57613029612c27565b5b600061303884828501612fff565b91505092915050565b61304a81612fde565b82525050565b60006020820190506130656000830184613041565b92915050565b61307481612e0e565b811461307f57600080fd5b50565b6000813590506130918161306b565b92915050565b6000602082840312156130ad576130ac612c27565b5b60006130bb84828501613082565b91505092915050565b600080604083850312156130db576130da612c27565b5b60006130e985828601612fff565b92505060206130fa85828601613082565b9150509250929050565b6000806040838503121561311b5761311a612c27565b5b600061312985828601612d0d565b925050602061313a85828601612d0d565b9150509250929050565b60006020820190506131596000830184612d4f565b92915050565b600080fd5b600080fd5b7f4e487b7100000000000000000000000000000000000000000000000000000000600052604160045260246000fd5b6131a182612da4565b810181811067ffffffffffffffff821117156131c0576131bf613169565b5b80604052505050565b60006131d3612c1d565b90506131df8282613198565b919050565b600067ffffffffffffffff8211156131ff576131fe613169565b5b61320882612da4565b9050602081019050919050565b82818337600083830152505050565b6000613237613232846131e4565b6131c9565b90508281526020810184848401111561325357613252613164565b5b61325e848285613215565b509392505050565b600082601f83011261327b5761327a61315f565b5b813561328b848260208601613224565b91505092915050565b600080600080600060a086880312156132b0576132af612c27565b5b60006132be88828901612d0d565b95505060206132cf88828901612d0d565b94505060406132e088828901613082565b935050606086013567ffffffffffffffff81111561330157613300612c2c565b5b61330d88828901613266565b925050608086013567ffffffffffffffff81111561332e5761332d612c2c565b5b61333a88828901613266565b9150509295509295909350565b600060e08201905061335c600083018a612d4f565b6133696020830189612d4f565b6133766040830188612e20565b81810360608301526133888187612db5565b9050818103608083015261339c8186612db5565b90506133ab60a0830185612d4f565b6133b860c0830184612cc2565b98975050505050505050565b6000806000606084860312156133dd576133dc612c27565b5b60006133eb86828701613082565b93505060206133fc86828701612d0d565b925050604061340d86828701612fff565b9150509250925092565b6000806040838503121561342e5761342d612c27565b5b600061343c85828601612d0d565b925050602083013567ffffffffffffffff81111561345d5761345c612c2c565b5b61346985828601613266565b9150509250929050565b6000806040838503121561348a57613489612c27565b5b600061349885828601613082565b92505060206134a985828601612d0d565b9150509250929050565b600060a0820190506134c86000830188612d4f565b6134d56020830187612d4f565b6134e26040830186612d4f565b6134ef6060830185612d4f565b6134fc6080830184613041565b9695505050505050565b600067ffffffffffffffff82111561352157613520613169565b5b602082029050602081019050919050565b600080fd5b600061354a61354584613506565b6131c9565b9050808382526020820190506020840283018581111561356d5761356c613532565b5b835b8181101561359657806135828882612d0d565b84526020840193505060208101905061356f565b5050509392505050565b600082601f8301126135b5576135b461315f565b5b81356135c5848260208601613537565b91505092915050565b60008060008060008060c087890312156135eb576135ea612c27565b5b600087013567ffffffffffffffff81111561360957613608612c2c565b5b61361589828a01613266565b965050602087013567ffffffffffffffff81111561363657613635612c2c565b5b61364289828a01613266565b955050604061365389828a01612d0d565b945050606061366489828a01612d0d565b935050608087013567ffffffffffffffff81111561368557613684612c2c565b5b61369189828a01613266565b92505060a087013567ffffffffffffffff8111156136b2576136b1612c2c565b5b6136be89828a016135a0565b9150509295509295509295565b600080600080600080600060e0888a0312156136ea576136e9612c27565b5b60006136f88a828b01612d0d565b975050602088013567ffffffffffffffff81111561371957613718612c2c565b5b6137258a828b01613266565b965050604088013567ffffffffffffffff81111561374657613745612c2c565b5b6137528a828b01613266565b95505060606137638a828b01612d0d565b94505060806137748a828b01612d0d565b93505060a088013567ffffffffffffffff81111561379557613794612c2c565b5b6137a18a828b01613266565b92505060c088013567ffffffffffffffff8111156137c2576137c1612c2c565b5b6137ce8a828b016135a0565b91505092959891949750929550565b600081519050919050565b600082825260208201905092915050565b6000819050602082019050919050565b61381281612fde565b82525050565b60a08201600082015161382e6000850182612f2a565b5060208201516138416020850182612f2a565b5060408201516138546040850182612f2a565b5060608201516138676060850182612f2a565b50608082015161387a6080850182613809565b50505050565b600061388c8383613818565b60a08301905092915050565b6000602082019050919050565b60006138b0826137dd565b6138ba81856137e8565b93506138c5836137f9565b8060005b838110156138f65781516138dd8882613880565b97506138e883613898565b9250506001810190506138c9565b5085935050505092915050565b6000602082019050818103600083015261391d81846138a5565b905092915050565b600060a08201905061393a6000830188612e20565b6139476020830187612d4f565b6139546040830186612d4f565b6139616060830185612d4f565b81810360808301526139738184612db5565b90509695505050505050565b7f4e487b7100000000000000000000000000000000000000000000000000000000600052602260045260246000fd5b600060028204905060018216806139c657607f821691505b6020821081036139d9576139d861397f565b5b50919050565b7f416363657373436f6e74726f6c3a2063616e206f6e6c792072656e6f756e636560008201527f20726f6c657320666f722073656c660000000000000000000000000000000000602082015250565b6000613a3b602f83612d69565b9150613a46826139df565b604082019050919050565b60006020820190508181036000830152613a6a81613a2e565b9050919050565b7f4e6f742063616d706169676e206f776e65720000000000000000000000000000600082015250565b6000613aa7601283612d69565b9150613ab282613a71565b602082019050919050565b60006020820190508181036000830152613ad681613a9a565b9050919050565b7f4e487b7100000000000000000000000000000000000000000000000000000000600052601160045260246000fd5b6000613b1782612cec565b9150613b2283612cec565b9250828203905081811115613b3a57613b39613add565b5b92915050565b7f496e73756666696369656e742066756e64730000000000000000000000000000600082015250565b6000613b76601283612d69565b9150613b8182613b40565b602082019050919050565b60006020820190508181036000830152613ba581613b69565b9050919050565b7f416c6c206d696c6573746f6e657320636f6d706c657465640000000000000000600082015250565b6000613be2601883612d69565b9150613bed82613bac565b602082019050919050565b60006020820190508181036000830152613c1181613bd5565b9050919050565b7f4e487b7100000000000000000000000000000000000000000000000000000000600052603260045260246000fd5b6000613c5282612cec565b9150613c5d83612cec565b9250828202613c6b81612cec565b91508282048414831517613c8257613c81613add565b5b5092915050565b7f4e487b7100000000000000000000000000000000000000000000000000000000600052601260045260246000fd5b6000613cc382612cec565b9150613cce83612cec565b925082613cde57613cdd613c89565b5b828204905092915050565b6000613cf482612cec565b9150613cff83612cec565b9250828201905080821115613d1757613d16613add565b5b92915050565b7f45786365656473206d696c6573746f6e65206c696d6974000000000000000000600082015250565b6000613d53601783612d69565b9150613d5e82613d1d565b602082019050919050565b60006020820190508181036000830152613d8281613d46565b9050919050565b6000613d9482612cec565b91507fffffffffffffffffffffffffffffffffffffffffffffffffffffffffffffffff8203613dc657613dc5613add565b5b600182019050919050565b60008190508160005260206000209050919050565b60006020601f8301049050919050565b600082821b905092915050565b600060088302613e337fffffffffffffffffffffffffffffffffffffffffffffffffffffffffffffffff82613df6565b613e3d8683613df6565b95508019841693508086168417925050509392505050565b6000819050919050565b6000613e7a613e75613e7084612cec565b613e55565b612cec565b9050919050565b6000819050919050565b613e9483613e5f565b613ea8613ea082613e81565b848454613e03565b825550505050565b600090565b613ebd613eb0565b613ec8818484613e8b565b505050565b5b81811015613eec57613ee1600082613eb5565b600181019050613ece565b5050565b601f821115613f3157613f0281613dd1565b613f0b84613de6565b81016020851015613f1a578190505b613f2e613f2685613de6565b830182613ecd565b50505b505050565b600082821c905092915050565b6000613f5460001984600802613f36565b1980831691505092915050565b6000613f6d8383613f43565b9150826002028217905092915050565b613f8682612d5e565b67ffffffffffffffff811115613f9f57613f9e613169565b5b613fa982546139ae565b613fb4828285613ef0565b600060209050601f831160018114613fe75760008415613fd5578287015190505b613fdf8582613f61565b865550614047565b601f198416613ff586613dd1565b60005b8281101561401d57848901518255600182019150602085019450602081019050613ff8565b8683101561403a5784890151614036601f891682613f43565b8355505b6001600288020188555050505b505050505050565b600081905092915050565b50565b600061406a60008361404f565b91506140758261405a565b600082019050919050565b600061408b8261405d565b9150819050919050565b7f5472616e73666572206661696c65640000000000000000000000000000000000600082015250565b60006140cb600f83612d69565b91506140d682614095565b602082019050919050565b600060208201905081810360008301526140fa816140be565b9050919050565b60006060820190506141166000830186612d4f565b6141236020830185612d4f565b81810360408301526141358184612db5565b9050949350505050565b7f43616d706169676e20646f6573206e6f74206578697374000000000000000000600082015250565b6000614175601783612d69565b91506141808261413f565b602082019050919050565b600060208201905081810360008301526141a481614168565b9050919050565b7f43616d706169676e206973206e6f742061637469766500000000000000000000600082015250565b60006141e1601683612d69565b91506141ec826141ab565b602082019050919050565b60006020820190508181036000830152614210816141d4565b9050919050565b7f43616d706169676e206e6f742076657269666965640000000000000000000000600082015250565b600061424d601583612d69565b915061425882614217565b602082019050919050565b6000602082019050818103600083015261427c81614240565b9050919050565b7f43616d706169676e2068617320656e6465640000000000000000000000000000600082015250565b60006142b9601283612d69565b91506142c482614283565b602082019050919050565b600060208201905081810360008301526142e8816142ac565b9050919050565b7f446f6e6174696f6e206d7573742062652067726561746572207468616e203000600082015250565b6000614325601f83612d69565b9150614330826142ef565b602082019050919050565b6000602082019050818103600083015261435481614318565b9050919050565b60008160601b9050919050565b60006143738261435b565b9050919050565b600061438582614368565b9050919050565b61439d61439882612e0e565b61437a565b82525050565b6000819050919050565b6143be6143b982612cec565b6143a3565b82525050565b60006143d0828861438c565b6014820191506143e082876143ad565b6020820191506143f082866143ad565b60208201915061440082856143ad565b60208201915061441082846143ad565b6020820191508190509695505050505050565b60006040820190506144386000830185612d4f565b6144456020830184613041565b9392505050565b600060208201905081810360008301526144668184612db5565b905092915050565b7f44697362757273656d656e7420646f6573206e6f742065786973740000000000600082015250565b60006144a4601b83612d69565b91506144af8261446e565b602082019050919050565b600060208201905081810360008301526144d381614497565b9050919050565b60006020820190506144ef6000830184612e20565b92915050565b7f5265656e7472616e637947756172643a207265656e7472616e742063616c6c00600082015250565b600061452b601f83612d69565b9150614536826144f5565b602082019050919050565b6000602082019050818103600083015261455a8161451e565b9050919050565b7f5061757361626c653a2070617573656400000000000000000000000000000000600082015250565b6000614597601083612d69565b91506145a282614561565b602082019050919050565b600060208201905081810360008301526145c68161458a565b9050919050565b600081905092915050565b7f416363657373436f6e74726f6c3a206163636f756e7420000000000000000000600082015250565b600061460e6017836145cd565b9150614619826145d8565b601782019050919050565b600061462f82612d5e565b61463981856145cd565b9350614649818560208601612d7a565b80840191505092915050565b7f206973206d697373696e6720726f6c6520000000000000000000000000000000600082015250565b600061468b6011836145cd565b915061469682614655565b601182019050919050565b60006146ac82614601565b91506146b88285614624565b91506146c38261467e565b91506146cf8284614624565b91508190509392505050565b7f5061757361626c653a206e6f7420706175736564000000000000000000000000600082015250565b6000614711601483612d69565b915061471c826146db565b602082019050919050565b6000602082019050818103600083015261474081614704565b9050919050565b600061475282612cec565b91506000820361476557614764613add565b5b600182039050919050565b7f537472696e67733a20686578206c656e67746820696e73756666696369656e74600082015250565b60006147a6602083612d69565b91506147b182614770565b602082019050919050565b600060208201905081810360008301526147d581614799565b905091905056fea2646970667358221220b64a15f9cf5e06c87c2ab30569435deb9060fb6e3f75d50e4b0d6df0edd6158d64736f6c634300081c0033",
  "linkReferences": {},
  "deployedLinkReferences": {}
}